:020000040800F2
:100000009015002029D1000831C7000833C7000827
:1000100035C7000837C7000839C7000800000000CE
:100020000000000000000000000000003BC70008C6
:100030003DC70008000000003FC7000841C7000896
:100040008DD1000891D1000895D1000899D1000800
:100050009DD10008A1D1000821C800082BC80008C4
:10006000A5D10008A9D10008ADD10008B1D1000880
:10007000B5D10008B9D10008BDD10008C1D1000830
:10008000C5D10008C9D10008CDD1000867C7000854
:1000900071C700087BC7000885C70008D1D10008D8
:1000A000D5D10008D9D10008DDD10008E1D1000880
:1000B000D5C70008DFC70008E5D10008E9D100086E
:1000C000EDD10008F1D10008F5D10008F9D1000800
:1000D000FDD10008B7C70008C1C70008CBC700089A
:1000E00001D2000805D2000809D200080DD200088C
:1000F00011D2000815D2000819D200081DD200083C
:1001000021D2000849C70008E9C7000825D2000825
:1001100029D200082DD2000831D2000835D20008BB
:1001200039D200083DD2000841D2000853C7000868
:1001300045D2000800000000000000008FC7000842
:1001400099C70008A3C70008ADC7000849D2000836
:100150004DD200085DC7000851D2000855D20008F2
:1001600059D200085DD2000861D2000865D20008AB
:1001700069D200086DD2000871D2000800000000AA
:100180000000000075D20008000000000000000020
:1001900079D2000800000000000000007DD20008B5
:1001A00000000000000000000000000081D20008F4
:1001B00085D2000889D200088DD2000891D20008AB
:1001C00095D2000801004A78087850EA022080B2EF
:1001D00070470100C8788A7852EA00224B7853EAC7
:1001E0000223087850EA032070470170401C89B24E
:1001F000090A0170401C70470170401C090A017017
:10020000401C090A0170401C090A0170401C70471B
:1002100030B403000C00002A06D025781D70641C41
:100220005B1C521E002AF8D130BC704703001970C5
:100230005B1C521E002AFAD17047F0B4040025005E
:100240000E0000202F783378FF1A3800761C6D1CC2
:10025000521E002A01D00028F4D0F0BC704702786A
:10026000002A04D002788A4201D0401CF7E70078C7
:10027000704770B4020000231C00022C1BD2DFF870
:10028000EC5A20012858002811D02001285816685F
:10029000B0420ED12001284440689668B04208D18F
:1002A0002001284480685569A84202D103E001205A
:1002B0000300641CE1E7022C08D1002B01D10229C4
:1002C00001D1002000E01220C0B20DE0002907D1CA
:1002D000DFF8980A210108448089B0F5807F01D1B8
:1002E000102000E00020C0B270BC7047002102293D
:1002F00007D2DFF8780A0A018058002801D0491C8B
:10030000F5E7022901D1002000E00120704730B458
:1003100002000023022B14D2DFF8500A1C010459FA
:100320001568AC420BD11C01044464689568AC426A
:1003300005D11C01204480685469A04201D05B1C97
:10034000E8E7022B20D100200300022B07D2DFF8C0
:100350001C0A1C010059002801D05B1CF5E7022B88
:1003600001D100202DE0DFF8040A14681D0144517A
:1003700094681D0105446C6054691D010544AC601E
:1003800000241D0128448481002908D0DFF8DC09FD
:100390001C0120448089002801D0002011E00029A0
:1003A00002D04FF4807005E0DFF8C0091C01204442
:1003B0008089401CDFF8B4491D012C44A0815B1CDE
:1003C000180030BC704710B40200521E022A1DD221
:1003D000DFF898391001184480890100080080B2C4
:1003E000B0F5807F01D100200100080080B2002814
:1003F00000D0491E100118448181080080B20028F5
:1004000002D1002014011851002000E00220C0B2E7
:1004100010BC704710B4002102290AD2DFF84C2921
:100420000B01D358834202D100230C011351491C04
:10043000F2E710BC7047F8B504000027E078002808
:1004400023D0206B050001232A0014F134016078C9
:1004500001F056FE002802D00120070015E0002020
:10046000E070606A281AE16988420ED2A07806001E
:10047000022E0AD3E069451901232A0014F1340140
:10048000607801F03DFE761EF2E73800C0B2F2BDA2
:1004900070B504000D000026206B854216D02000A8
:1004A000FFF7C9FF06003000C0B200280ED10123BB
:1004B0002A0014F13401607801F008FE002804D00D
:1004C0005FF0FF3005000120060025633000C0B258
:1004D00070BD38B504002000FFF7ADFF050028000F
:1004E000C0B200283DD12078032831D120790128DD
:1004F0002ED14FF40072002114F13400FFF796FE64
:100500004AF6552104F23220FFF76FFEDFF860183B
:1005100014F13400FFF770FEDFF8581814F5067078
:10052000FFF76AFE616914F50770FFF765FE216940
:1005300014F50870FFF760FE206A401C2063012359
:10054000226B14F13401607801F0DAFD0020207193
:1005500000220021607801F0EDFD002801D001208B
:1005600005002800C0B232BD0200891E9069801EBD
:10057000814201D3002004E05389D06A03FB0101CA
:10058000080070472DE9F84304000D00D4F80080FE
:10059000022D03D3D8F81800854202D35FF0010979
:1005A00061E05FF0FF3998F80000012804D058D3CB
:1005B000032842D02FD354E0280010EB500007004E
:1005C000D8F8241011EB57214046FFF761FF0028AF
:1005D00049D1F805C00D404490F8340006007F1C56
:1005E000D8F8241011EB57214046FFF751FF00289F
:1005F00039D1F805C00D404490F8340056EA002681
:10060000E80703D5B1465FEA191903E05FEA065926
:100610005FEA195927E0D8F8241011EB152140465C
:10062000FFF736FF00281ED16800C005C00D40440A
:100630003430FFF7C7FD814615E0D8F8241011EBE0
:10064000D5114046FFF724FF00280CD1A800C005B3
:10065000C00D40443430FFF7BCFD20F070408146AF
:1006600001E0012081464846BDE8F2832DE9F843C8
:1006700004000D0016005FF00209022DC0F0888012
:10068000A069854280F084802078012805D0C0F0E0
:100690007F8003285DD045D37AE0280010EB50001E
:1006A0008046616A11EB58212000FFF7F1FE814678
:1006B0004846C0B200286BD15FEAC850C00D204444
:1006C0003430070018F10108E80705D5387810F034
:1006D0000F0050EA061000E0300038700120E07092
:1006E000616A11EB58212000FFF7D2FE814648468F
:1006F000C0B200284CD15FEAC850C00D204434304D
:100700000700E80702D53000000907E0387810F04C
:10071000F0003100090A11F00F0108433870012080
:10072000E07035E0616A11EB15212000FFF7B0FEA3
:1007300081464846C0B200282AD1310089B26800FB
:10074000C005C00D20443430FFF74FFD0120E0709C
:100750001EE0616A11EBD5112000FFF799FE81467A
:100760004846C0B2002813D1A800C005C00D2044DF
:100770003430FFF72EFD000F60F31F763100A80024
:10078000C005C00D20443430FFF736FD0120E07075
:100790004846C0B2BDE8F2832DE9F84306000F00D9
:1007A00015005FF00008D6F80090022F03D3D9F8A7
:1007B0001800874201D3022044E0002D0DD05FF0E5
:1007C000FF3229004846FFF751FF80464046C0B23D
:1007D000002802D04046C0B234E039003000FFF7B4
:1007E000D1FE0400002C2CD0012C01D1022029E0E4
:1007F00014F1010F01D1012024E000223900484604
:10080000FFF734FF80464046C0B2002802D0404681
:10081000C0B217E0D9F81400D9F81810891E884220
:100820000AD2D9F81400401CC9F8140099F8040041
:1008300050F0010089F804002700D9F81800874219
:10084000CBD30020BDE8F2832DE9F04707000C0070
:10085000D7F80080002C0AD1D8F81060002E03D001
:10086000D8F81800864217D30120060014E02100B2
:100870003800FFF787FE0500022D01D2012061E05C
:1008800015F1010F01D128005CE0D8F8180085426D
:1008900001D2280056E02600B14619F10109D8F826
:1008A0001800814505D3022081464E4501D2002023
:1008B00048E049463800FFF765FE0500002D0BD1E2
:1008C0005FF0FF3249464046FFF7D0FE8246504671
:1008D000C0B2002813D10AE0012D02D015F1010F9A
:1008E00001D128002EE0B145D7D100202AE0002C0C
:1008F00005D04A4621004046FFF7B8FE82465046E2
:10090000C0B2002814D1C8F81090D8F81800801E82
:10091000D8F81410884204D3D8F81400401EC8F840
:10092000140098F8040050F0010088F8040008E072
:100930005046C0B2012802D15FF0FF3901E05FF0FC
:1009400001094846BDE8F08770B403000A001E683C
:10095000D86A001D1400640A7589B4FBF5F40568B3
:100960002900051D002901D1002008E08C4203D296
:1009700028680419200002E0641A281DEFE770BC03
:1009800070472DE9F04105000E00D5F80080B6F55E
:10099000001F02D216F01F0F01D0022049E06E6145
:1009A000AC68002C06D198F80000032802DBD8F8C8
:1009B00028000400002C0BD130004009B8F80810C2
:1009C000884201D3022034E0D8F82800E86120E012
:1009D000B8F80A104FF4007041430F00BE4213D321
:1009E00021002800FFF7CEFD040014F1010F01D112
:1009F00001201EE0022C03D3D8F81800844201D352
:100A0000022016E0F61BE9E721004046FFF7ACFDA7
:100A1000E861AC61E869002801D1022009E0E869D9
:100A200010EB5620E861F005C00D404434302862D8
:100A30000020BDE8F0812DE9F84307000C00D7F84D
:100A40000080D7F8149019F12009F869002802D025
:100A5000B9F5001F01D3042081E05FEAC95075D1C8
:100A6000F869401CF861B869002809D14846400976
:100A7000B8F80810884269D30020F86104206EE0BD
:100A8000B8F80A00401E10EA592F5FD1B969380042
:100A9000FFF778FD0500022D01D202205FE015F17D
:100AA000010F01D101205AE0D8F81800854247D340
:100AB000002C03D10020F861042050E0B96938000F
:100AC000FFF7C2FE0500002D01D1072047E0012DF0
:100AD00001D1022043E015F1010F01D101203EE0D8
:100AE0004046FFF7A8FC002801D0012037E04FF472
:100AF0000072002118F13400FFF798FB0020060077
:100B000029004046FFF730FDC8F83000B8F80A0069
:100B1000864210D2012088F803004046FFF78BFC84
:100B2000002801D001201AE0761CD8F83000401CC3
:100B3000C8F83000EAE7D8F83000801BC8F8300069
:100B4000BD6129004046FFF70FFDF861C7F814901A
:100B50005FEAC950C00D4044343038620020BDE81F
:100B6000F2832DE9F04104000D00276800212000E8
:100B7000FFF707FF80464046C0B2002821D1002081
:100B80000600E1693800FFF783FC80464046C0B2AA
:100B9000002816D1206A0078E52803D0206A007862
:100BA000002803D1761CAE4202D10AE000200600E4
:100BB00001212000FFF73FFF80464046C0B20028D9
:100BC000DFD04046C0B2042801D10720804640460D
:100BD000C0B2BDE8F08170B504000D0015F11A0037
:100BE000FFF7F0FA06002078032806D115F114006B
:100BF000FFF7E8FA56EA00400600300070BD70B515
:100C000004000D001600310089B215F11A00FFF73B
:100C1000ECFA2078032806D13100090C89B215F1CD
:100C20001400FFF7E2FA70BD2DE9F04704000D0053
:100C300015F11A00FFF7C6FA002801D000204AE09B
:100C400095F8008018F03F08B8F101080D2000FB6E
:100C500008F801275FF00009B9F10D0F2DD2DFF878
:100C6000740810F809002844FFF7ACFA06003800B1
:100C700080B2002816D0B8F1FF0F0FD2300080B23A
:100C800001F0A0FA824634F8180001F09BFA18F13E
:100C900001081FFA8AFA80B2824501D000201AE0CA
:100CA000370007E0300080B24FF6FF71884201D074
:100CB000002010E019F10109CEE72878400609D597
:100CC000380080B2002805D034F81800002801D080
:100CD000002000E00120BDE8F0872DE9F84F040076
:100CE0000D0016001F006F730F20E872002028739C
:100CF000002115F11A00FFF778FAB0465FFA88F87C
:100D0000B8F101080D2000FB08F85FF00009CA46A1
:100D10001FFA8AFA4FF6FF7B484680B2584504D046
:100D200034F81800814618F10108494689B2DFF805
:100D3000A40710F80A002844FFF757FA484680B283
:100D4000002801D1584681461AF1010ABAF10D0F67
:100D5000E0D3484680B2584503D034F81800002844
:100D600001D156F040062E70BDE8F18F7C0F0020B7
:100D700052526141727241612DE9FE4F05000E0031
:100D800017001C000B2231002800FFF741FA062C47
:100D900022D3A346388800281DD038888246BF1C3D
:100DA00000208146B9F1100FF4D25846D3461FFAFD
:100DB0008BFB1BF0010B1BEB400B1FFA8AFA5FEA5F
:100DC0005A0A5FEACB3003D58BF4883B9BF0210BAA
:100DD00019F10109E6E75C46072014F00F013031F4
:100DE00088464146C9B23A2901DB18F107086A462C
:100DF00002F80080401E2409002CEED17E211154FF
:100E00000021814204D26B5C202B01D0491CF8E701
:100E10000B00591C082803D212F800C0401C01E046
:100E20005FF0200C05F803C00829F1D3BDE8F78F67
:100E3000030000200B210200D2B2520812EBC010B6
:100E40001A7810185B1C491E0029F4D1C0B27047F3
:100E50002DE9FE4F05002E6800212800FFF791FDC7
:100E600007003800C0B2002802D03800C0B282E0CB
:100E70004FF0FF088DF804809DF804B05FF0FF3953
:100E8000C5F83090E9693000FFF702FB0700380031
:100E9000C0B200286DD1286A007882465046C0B2A0
:100EA000002802D10420070063E0286AC07A10F00D
:100EB0003F000400AC715046C0B2E52805D02007C1
:100EC00007D52000C0B20F2803D0C346C5F8309024
:100ED00046E02000C0B20F2826D195F82F0040062A
:100EE0003ED45FEA4A6008D5286A407B8DF804004A
:100EF0001AF0BF0AD3466869286350465946C0B203
:100F0000C9B288420ED19DF80400296A497B884203
:100F100008D1296AF068FFF787FE002802D0BBF1EC
:100F2000010B1DE0C3461BE05846C0B2002808D1A3
:100F30009DF804000090286AFFF77AFF009981422B
:100F400017D095F82F00C00707D40B2215F1240104
:100F5000286AFFF772F900280BD0C346C5F8309015
:100F600000212800FFF767FD07003800C0B2002805
:100F700088D03800C0B2BDE8FE8F2DE9FE4F0700D3
:100F8000D7F8008097F82F0010F0A00F01D00620AE
:100F9000A6E05FF00009D8F80C0030F8190000282E
:100FA00002D019F10109F6E70C2217F12401684675
:100FB000FFF72EF96C46E07AC00726D5402087F867
:100FC0002F0001200500642D11D22B00D8F80C2031
:100FD000694617F12400FFF7CFFE3800FFF738FF0E
:100FE00083465846C0B2002801D16D1CEBE7642D42
:100FF00001D1072074E05846C0B2042802D05846F8
:10100000C0B26DE0E07A87F82F00E07A800706D55D
:1010100019F10C000D21B0FBF1F4641C00E0012477
:1010200021003800FFF79DFD82465046C0B20028DF
:1010300033D1641E002C30D07969B1EB44113800F3
:10104000FFF79FFC82465046C0B2002825D117F119
:101050002400FFF7EDFE0600F9694046FFF718FA95
:1010600082465046C0B2002817D13300DBB22200BE
:10107000D2B2396AD8F80C00FFF72FFE012088F8A9
:10108000030000213800FFF7D6FC82465046C0B26C
:10109000002802D1641E002CDED15046C0B20028C8
:1010A0001CD1F9694046FFF7F3F982465046C0B2B9
:1010B000002813D120220021386AFFF7B7F80B224D
:1010C00017F12401386AFFF7A3F897F82F0010F002
:1010D0001800396A0873012088F803005046C0B22E
:1010E000BDE8FE8F2DE9F34F81B0029806680198A4
:1010F0000068C7680024A04616F808B018F1010877
:10110000584680B2202837DB584680B22F2803D0BB
:10111000584680B25C280BD116F808002F2803D05F
:1011200016F808005C2802D118F10108F4E723E062
:10113000FF2C01D3062011E10BF0FF0B01215846D3
:1011400080B201F00FF80500280080B2002801D11C
:10115000062003E1280080B2802809DA290089B23C
:10116000DFF84C07FFF77BF8002801D00620F5E0F8
:1011700027F81450641CBFE706EB080002990860CA
:10118000584680B2202802DA5FF0040A01E05FF0DE
:10119000000A002C0ED007EB440030F8020C834606
:1011A000584680B2202803D0584680B22E2801D15C
:1011B000641EEEE7002027F81400002C01D1062061
:1011C000CCE00B22202101982430FFF72FF80025D6
:1011D00037F81500202803D037F815002E2801D144
:1011E0006D1CF5E7002D01D05AF0030A002C07D042
:1011F00007EB440030F8020C2E2801D0641EF5E7FE
:101200005FF00009C8465FFA88F80820009037F8B8
:10121000150083466D1C584680B200286BD0584696
:1012200080B2202805D0584680B22E2804D1A5428D
:1012300002D05AF0030AEAE70098804501D2A5429D
:1012400013D100980B2802D15AF0030A53E0A542AB
:1012500001D05AF0030AAC424DD325000820804645
:101260000B2000905FEA8909D1E7584680B28028B8
:1012700012DB0021584680B200F074FF83465846C6
:1012800080B2002806D0DFF82C061FFA8BFB5844EA
:1012900010F880BC5AF0020A584680B2002807D0E5
:1012A000594689B2DFF81006FEF7D9FF002804D0AE
:1012B0005F2083465AF0030A16E0584680B2412860
:1012C00006DB584680B25B2802DA59F002090BE0CF
:1012D000584680B2612807DB584680B27B2803DA83
:1012E00059F00109BBF1200B0198404480F824B06B
:1012F00018F101088BE7019890F82400E52803D144
:101300000520019981F824000098082801D15FEA9E
:1013100089094846C0B210F00C000C2805D0484698
:10132000C0B210F00300032801D15AF0020A5FEAAC
:101330008A700FD44846C0B210F00300012801D1D2
:101340005AF0100A4846C0B210F00C00042801D12F
:101350005AF0080A019880F82FA00020BDE8FE8FFF
:101360002DE9F34104002700D7F8008001980078A8
:101370002F2803D0019800785C2803D10198401CE5
:101380000190F3E70020B86001980078202808D287
:10139000802084F82F0000212000FFF7F2FA0500DA
:1013A0002FE001A92000FFF79DFE05002800C0B234
:1013B000002826D12000FFF74BFD050094F82F00F0
:1013C00006002800C0B2002808D02800C0B20428B7
:1013D00003D1700701D40520050012E0700710D476
:1013E000B879C00602D4052005000AE06069C0058E
:1013F000C00D404410F134014046FFF7ECFBB860EB
:10140000CFE72800C0B2BDE8F68110B402005FF05B
:10141000FF30116800291CD011680C0021782029A8
:1014200004D321783A2901D0641CF7E721783A29BE
:101430000DD11368197830395B1C0A2906D2A342F2
:1014400004D1002902D10800641C146001E00021CD
:10145000080010BC704738B504000D000020E07093
:101460005FF0FF30206329002000FFF711F800280B
:1014700001D004202CE004F23220FEF7A3FE4AF64D
:101480005521884201D0032022E094F83400E92855
:1014900007D094F83400EB2819D194F8360090283E
:1014A00015D114F16A00FEF794FE20F07F40DFF8BA
:1014B0000C14884201D100200AE014F18600FEF7E6
:1014C00088FEDFF8FC13884201D1002000E00220F2
:1014D00032BD0000D8D000082DE9F34F89B01700C5
:1014E00000200A9908600998FFF78FFF0290029880
:1014F000002801D50B2083E1DFF8C803029950F8DA
:101500002150002D01D10C207AE10A98056017F0D6
:10151000FE078DF80170287800280FD0687800F059
:10152000A9FD0400E00709D49DF80100002803D0BC
:10153000600701D50A2063E1002061E100202870E6
:1015400002986870687800F0A5FD8DF800009DF89D
:101550000000C00701D5032052E19DF801000028DA
:1015600005D09DF80000400701D50A2048E100247D
:1015700021002800FFF76FFF81464846C0B20228CD
:101580002ED10027042F13D23801284410F5F9700A
:10159000039003980079002804D003980830FEF7E0
:1015A00018FE00E0002005A941F827007F1CE9E7AC
:1015B0000026002E00D0761E05A850F82600040054
:1015C000002C04D021002800FFF745FF00E0032095
:1015D00081464846C0B2022802DB761C042EEBD3BB
:1015E0004846C0B2042801D1012009E14846C0B2F2
:1015F000022801DB0D2003E115F13F00FEF7E2FDBB
:10160000B0F5007F01D00D20FAE015F14A00FEF799
:10161000D9FD0700002F04D115F15800FEF7D9FDC0
:101620000700EF6195F84400A870A878012804D05D
:10163000A878022801D00D20E2E0A878474304975B
:1016400095F8410068816889002804D06889698913
:10165000491E084201D00D20D2E015F14500FEF7E9
:10166000B1FD2881287A10F00F0F01D00D20C7E0BE
:1016700015F14700FEF7A6FD0700002F04D115F174
:101680005400FEF7A6FD070015F14200FEF79AFD93
:101690008246504680B2002801D10D20B0E0049867
:1016A00010FA8AF0298910EB1110019001988742F5
:1016B00001D20D20A4E00198381A6989B0FBF1F835
:1016C000B8F1000F01D10D209AE05FF0030B4FF647
:1016D000F670804501D20220834640F6F6708045C0
:1016E00001D20120834618F10200A8612C6214FA8D
:1016F0008AF0686201980019E8625846C0B203286F
:1017000015D115F15E00FEF75DFD002801D00D201A
:1017100076E02889002801D00D2071E015F16000E5
:10172000FEF757FDA862A8695FEA800919E02889D9
:10173000002801D10D2063E0696A04984118A9626C
:101740005846C0B2022803D1A8695FEA400908E000
:10175000A9690320414395F8189019F0010919EB84
:101760005109E86909F2FF11B0EB512F01D20D20A8
:1017700046E05FF0FF306861686928618020287169
:101780005846C0B203282DD115F16400FEF71AFDAA
:10179000012827D1611C2800FEF77AFE002821D1FC
:1017A0000020287105F23220FEF70CFD4AF6552183
:1017B000884217D115F13400FEF70BFD42498842EB
:1017C00010D115F50670FEF704FD4049884209D195
:1017D00015F50770FEF7FDFC686115F50870FEF75A
:1017E000F8FC286185F800B039480188491C01805F
:1017F0000088E8803748E8602800FEF70BFE0020EC
:101800000BB0BDE8F08F70B504000D000926002C68
:1018100013D02068002810D02068007800280CD051
:10182000A0882168C988884207D12068407800F0E4
:1018300021FCC00701D4002006003000C0B20028FF
:1018400001D1206800E0002028603000C0B270BDE7
:10185000F3B581B01500029800906846FFF7D5FDFA
:101860000600002E01D50B2021E0164F57F8264028
:10187000002C04D02000FEF7CDFD00202070019840
:10188000002802D0002001990870019847F826002E
:101890000198002803D02800C0B2012801D0002000
:1018A00005E0002201A902A8FFF716FEC0B2FEBDA6
:1018B00038D1000808CA000850D100084641540039
:1018C000464154333C1100205252614172724161D1
:1018D000701100204C0700202DE9F34F8FB0040059
:1018E000002C01D109203AE112F03F029246524603
:1018F000D2B2694610A8FFF7EFFD81464846C0B254
:10190000002840F0248100980290109902A8FFF767
:1019100027FD81464846C0B2002810D19DF8370007
:10192000000602D50620814609E01AF0FE0F01D01C
:10193000012100E0002102A8FEF79BFC81461AF07D
:101940001C0F62D04846C0B2002810D04846C0B232
:10195000042809D1FEF7CAFC002803D002A8FFF72B
:101960000CFB00E0122081465AF0080A0CE09DF8BA
:101970000E0010F0110F02D00720814604E05FEA4C
:101980004A7001D5082081464846C0B2002850D18F
:101990005FEA0A704DD500F08BFC060031000A9812
:1019A0000E30FEF729FC31000A981630FEF724FCB1
:1019B00020200A99C8720A990098FFF70CF90500CF
:1019C00000220A990098FFF71AF900210A981C30A2
:1019D000FEF712FC01200099C870002D29D0009854
:1019E000006B06000022290002A8FEF7D5FE814602
:1019F0004846C0B200281CD131000098FEF748FDCF
:101A00008146681E0099086113E04846C0B200286C
:101A10000FD19DF80E00C00602D50420814608E0D3
:101A20005FEA8A7005D59DF80E00C00701D5072032
:101A300081464846C0B2002818D15FEA0A7001D535
:101A40005AF0400A0098006B60620A98A0621AF08F
:101A5000FE0F01D0012100E0002102A8FEF757FC93
:101A600020612069002801D1022081464846C0B289
:101A700000286CD10A990098FFF7ADF8A0600A9889
:101A80001C30FEF7A6FBE0600020E06200982060BA
:101A90000098C088A08084F814A000206075002001
:101AA00020620020A0614FF40072002114F1300088
:101AB000FEF7BCFB5FEA8A6049D5E068002846D0A3
:101AC000E068A061009841894FF4007041430F0025
:101AD000A0688046E06883464846C0B2002813D11B
:101AE0005F4511D241462000FEF74CFD8046B8F11B
:101AF000020F01D20220814618F1010F01D101200D
:101B00008146BBEB070BE7E7C4F81C804846C0B230
:101B100000281CD15FEACB5019D041460098FEF74F
:101B200023FD0190002802D1022081460FE0019898
:101B300010EB5B2020620123226A14F1300100982F
:101B4000407800F0C3FA002801D0012081464846C1
:101B5000C0B2002801D0002020604846C0B211B0B9
:101B6000BDE8F08F2DE9FB4F82B007001500DDF8CE
:101B70000C9000200499086069463800FFF743FE86
:101B800082465046C0B2002804D1787D8246C0B259
:101B9000002802D05046C0B2F4E0387D800701D45E
:101BA0000720EFE0B8692818B969884204D25FF0CD
:101BB000FF31B869091A0D00002D00F0DE80B86908
:101BC000C00540F0AE80B86900994989491E11EA04
:101BD00050210191019800282FD1B869002809D11E
:101BE000B8680400002C13D100213800FEF72CFE49
:101BF00004000DE0F86A002805D0B9693800FEF746
:101C0000A3FE040004E0F9693800FEF71DFE04009D
:101C1000002C00F0B280012C03D102207875022044
:101C2000B0E014F1010F03D1012078750120A9E083
:101C3000FC61B868002800D1BC60387D000611D571
:101C400001233A6A17F130010098407800F058FA01
:101C5000002803D001207875012093E0387D10F032
:101C60007F003875F9690098FEF77EFC01000029B5
:101C700003D102207875022084E08B46019810EB96
:101C80000B0B2800400A0600002E33D00098408934
:101C900001997118884204D2009841890198091A63
:101CA0000E0033005A4649460098407800F028FA62
:101CB000002803D001207875012063E0386AB0EB7A
:101CC0000B00B04210D24FF40072396AB1EB0B0135
:101CD0004FF400704143494417F13000FEF798FA81
:101CE000387D10F07F0038754FF4007000FB06F06F
:101CF00080462CE0386A584511D0B869F9688842A6
:101D00000DD201235A4617F130010098407800F0B7
:101D1000DDF9002803D001207875012032E0C7F8F2
:101D200020B0B869C005C00DD0F5007080464545AB
:101D300000D2A84642464946B869C005C00D38449D
:101D40003030FEF765FA387D50F080003875C144B8
:101D5000B86918EB0000B861F868B969884201D227
:101D6000B86900E0F868F8600498006818EB0000B3
:101D700004990860B5EB08051EE7387D50F0400077
:101D80003875002005B0BDE8F08FF8B5040069464D
:101D90002000FFF738FD07003800C0B2002846D108
:101DA000207D400643D5207D00060FD50123226A01
:101DB00014F130010098407800F0A2F9002801D019
:101DC000012036E0207D10F07F00207500F070FAD1
:101DD0000500616A0098FEF75BFB07003800C0B29F
:101DE000002824D1A06A0600F07A50F02000F0729A
:101DF000A26831002068FEF702FFE16816F11C00BE
:101E0000FEF7FAF9290016F11600FEF7F5F90021A0
:101E100016F11200FEF7E9F901200099C870009848
:101E2000FEF757FB0700207D10F0BF00207538003B
:101E3000C0B2F2BD38B504002000FFF7A6FF0500D0
:101E40002800C0B2002812D169462000FFF7DBFC51
:101E500005002800C0B2002809D12069FEF7B3FAB6
:101E600005002800C0B2002801D100202060280011
:101E7000C0B232BD2DE9F54F87B00F000022694690
:101E800007A8FFF729FB83465846C0B2002875D142
:101E900000980899086000988069801E0099496937
:101EA000884203D300984069386067E0002081468B
:101EB0000098007801281DD10220060000980190AA
:101EC000310001A8FEF75EFB040014F1010F02D1FE
:101ED0000120834647E0012C02D10220834642E0E4
:101EE000002C01D119F10109761C00988069864205
:101EF000E6D338E00098806906000098406A824680
:101F00000020050000208046002D10D15146009889
:101F1000FEF7BEFA83461AF1010A5846C0B20028FD
:101F200021D10098343080464FF4007005000098AD
:101F3000007802280AD14046FEF744F9002801D172
:101F400019F1010918F10208AD1E09E04046FEF73B
:101F500040F9000101D119F1010918F104082D1F00
:101F6000761E002ED0D1C7F800900098C0F81490CB
:101F70000098007950F00100009908715846C0B2ED
:101F800009B0BDE8F08F7CB504000D002800C0B298
:101F90000A2803D10D212000FFF7F5FF6668002E07
:101FA00017D404EB06000573761C3D2E0DDB6B4643
:101FB000320014F10C012068FFF7D4FD0098B04204
:101FC00001D1002601E05FF0FF366660A068401C8A
:101FD000A06073BD1CB50400606800280ED46B4679
:101FE000626814F10C012068FFF7BCFD002805D1E0
:101FF00060680099884201D1A06801E05FF0FF307D
:1020000016BD01600022426042688260704730B5B0
:1020100093B004000D0029006846FFF7F2FF207816
:10202000002805D021786846FFF7ADFF641CF6E76D
:102030006846FFF7CFFF13B030BD30B4002513E082
:1020400050F8042BD30744BFA9F101039A18091FC4
:10205000042942F8045BFAD213468C0744BF15806A
:102060009B1CC90748BF1D7050F8041B0029E7D10D
:1020700030BC704710B5040039492000C0B2084494
:10208000007A2200D2B201EB820149684968884790
:10209000C0B210BD38B50400002531492000C0B2DF
:1020A000085C00280FD101202200D2B28854200001
:1020B000C0B20844007A2200D2B201EB8201496822
:1020C0000968884705002800C0B232BDF8B507008E
:1020D0000C0015001E00DFF888C033002A00210024
:1020E0003800C0B26044007ABE465FFA8EFE0CEB48
:1020F0008E0CDCF804C0DCF808C0E047C0B2F2BDCA
:10210000F8B507000C0015001E00DFF854C03300BE
:102110002A0021003800C0B26044007ABE465FFA4F
:102120008EFE0CEB8E0CDCF804C0DCF80CC0E04733
:10213000C0B2F2BDF8B504000D001600084B320025
:102140002900C9B22000C0B21844007A2700FFB2AB
:1021500003EB87035B681B699847C0B2F2BD0000C0
:102160002C11002030B40200100080B2802801DA67
:10217000100024E000290FD0100080B2B0F5807F5D
:1021800001DB00201BE0404813009BB200EB430042
:10219000B0F58070008812E0002003009BB2802B15
:1021A0000ADA1300384C0500ADB234F815409BB282
:1021B000A34201D0401CF0E7803000F0FF0080B265
:1021C00030BC704770B40100080080B2B0F5805F89
:1021D00001DA2E4D00E02E4D28880200AD1C1000C3
:1021E00080B2002805D00800160080B2B6B2B04216
:1021F00000D245E02888AD1C0600B6B2360A34008D
:1022000000F0FF000300080080B21E00B6B216FA0C
:1022100082F6B0422BDA200080B200280CD00228CF
:1022200016D010D3042817D014D3062818D015D3ED
:10223000082819D016D319E089B2100080B2091A03
:1022400035F8111012E0881A10F00100091A0DE09B
:1022500010390BE0203909E0303907E01A3905E080
:10226000083103E0503901E0B1F5E35108E0200006
:1022700080B20028B0D1180080B205EB4005ABE772
:10228000080080B270BC70474CC8000834C3000816
:102290004CC9000880B50349034800F02FF80349F2
:1022A000087001BD38110020C4D00008761100204C
:1022B00000207047F0B4040001200025144E737A0A
:1022C000002B18D10023777AF355737A06EB83033A
:1022D0005C60737A33441A72737A5F1C77721D00E4
:1022E00015F130030B703A234B702F238B700023B2
:1022F000CB7000231800C0B2F0BC704738B50400A2
:102300000D00002229002000FFF7D4FF32BD00009D
:102310002C11002010B50400002C01D101201AE07E
:1023200094F83400002804D100202077200001F028
:1023300082F8032084F83400200000F00DF8002813
:1023400001D0012007E00020A063002020630120CD
:1023500084F83400002010BD78B589B00400002056
:10236000039000200490002005900020069000209B
:1023700007907620089003A983B06846182201F0E0
:1023800061F90EBC206801F0AFF906003000C0B260
:10239000002801D0012025E0DFF848560020286001
:1023A000206801F0C2F901202860200000F044FEFE
:1023B0000500002D07D0012084F83400A06B2843CD
:1023C000A06301200EE0200000F0B1FD0100002913
:1023D00007D0012084F83400A06B0843A0630120DB
:1023E00000E000200AB070BD2DE9FF4F87B08146A4
:1023F000149C01F01FFD0090DDF824B0DDF820A052
:102400000898002807D1D9F8380050F00060C9F8C2
:10241000380001207FE199F83400012840F07481F0
:102420000020C9F83800D9F85C000A9911EB0B01BB
:10243000884207D2D9F8380050F00070C9F8380047
:10244000012068E1032089F834000020D9F8001049
:10245000C862D9F84400012803D04FF4007000FB93
:102460000BFB4FF40071D9F8000001F0A0F9050052
:10247000002D0ED0DFF87005D9F800108863D9F868
:1024800038002843C9F83800012089F834000120B9
:1024900041E15FF0FF3001900A994FF40070414331
:1024A00002919020039002200490002005900120CA
:1024B000069001A9D9F8000001F062F90A980228F3
:1024C00009D30220C9F830005946D9F8000001F0BC
:1024D000A2F9060008E00120C9F830005946D9F8F1
:1024E000000001F07EF90600002E11D0DFF8F8049C
:1024F000D9F800108863D9F838003043C9F838009B
:10250000012089F834000020C9F83000012002E1E0
:10251000029DD9F80000406B10F4957F41D1D9F8A5
:102520000000406B000421D5002D1FD000200700C3
:10253000082F1BD2D9F8000001F0EEF880468AF887
:1025400000801AF101006D1E4146090A0170401C0D
:102550006D1E4146090C0170401C6D1E4146090E5E
:10256000017010F1010A6D1E7F1CE1E701F062FCB1
:102570000099401AA04201D2002CCAD1DFF86804A9
:10258000D9F800108863D9F8380050F00040C9F835
:102590003800012089F834000020C9F830000320F9
:1025A000B9E0D9F80000406BC0051FD50A98022891
:1025B0001CD3D9F84400032818D0D9F8000001F042
:1025C00078F90600002E11D0DFF81C04D9F80010AD
:1025D0008863D9F838003043C9F83800012089F8F9
:1025E00034000020C9F83000012094E0D9F8000040
:1025F000406B000712D5DFF8F003D9F800108863AC
:10260000D9F8380050F00800C9F83800012089F8DE
:1026100034000020C9F8300001207CE0D9F8000027
:10262000406B800712D5DFF8C003D9F8001088632B
:10263000D9F8380050F00200C9F83800012089F8B4
:1026400034000020C9F83000012064E0D9F800000F
:10265000406B800612D5DFF89003D9F8001088632C
:10266000D9F8380050F02000C9F83800012089F866
:1026700034000020C9F8300001204CE0D9F80000F7
:10268000406B800236D5002D34D0D9F8000001F01F
:1026900043F880468AF800801AF101006D1E414619
:1026A000090A0170401C6D1E4146090C0170401C56
:1026B0006D1E4146090E017010F1010A6D1E01F0F8
:1026C000B9FB0099401AA04201D2002CD6D1DFF804
:1026D0001803D9F800108863D9F8380050F000408A
:1026E000C9F83800012089F834000020C9F830000A
:1026F000012010E040F23A50D9F800108863012020
:1027000089F83400002006E0D9F8380050F0005075
:10271000C9F8380001200BB0BDE8F08F2DE9F74F64
:1027200088B080469946149C01F084FB0190DDF846
:1027300028A0DDF824B00998002807D1D8F838007F
:1027400050F00060C8F83800012048E198F83400E3
:10275000012840F03D810020C8F83800D8F85C001E
:1027600019EB0A01884207D2D8F8380050F00070FF
:10277000C8F83800012032E1032088F83400002036
:10278000D8F80010C862D8F84400012803D04FF4EC
:10279000007000FB0AFA4FF40071D8F8000001F055
:1027A00006F80600002E0ED0DFF83C02D8F8001024
:1027B0008863D8F838003043C8F83800012088F81A
:1027C000340001200BE15FF0FF3002904FF4007005
:1027D00000FB09F003909020049000200590002059
:1027E00006900120079002A9D8F8000000F0C8FF69
:1027F000B9F1020F09D32020C8F830005146D8F8AB
:10280000000001F03CF8050008E01020C8F8300096
:102810005146D8F8000001F018F80500002D11D03D
:10282000DFF8C401D8F800108863D8F838002843CE
:10283000C8F83800012088F834000020C8F83000BB
:102840000120CCE0039ED8F80000406B10F48D7F8F
:1028500047D1D8F80000406B400428D5002E26D080
:1028600000200700082F22D29BF8000000901BF1E7
:102870000100761E0099027851EA02210091401C65
:10288000761E0099027851EA02410091401C761EA2
:102890000099027851EA0261009110F1010B761E55
:1028A0006946D8F8000000F03AFF7F1CDAE701F033
:1028B000C1FA0199401AA04201D2002CC3D1DFF81D
:1028C0002801D8F800108863D8F838002843C8F8E1
:1028D0003800012088F834000020C8F830000320B8
:1028E0007DE0D8F80000406BC0051FD5B9F1020F9C
:1028F0001CD3D8F84400032818D0D8F8000000F002
:10290000D8FF0500002D11D0DFF8DC00D8F800104A
:102910008863D8F838002843C8F83800012088F8C0
:1029200034000020C8F83000012058E0D8F800003A
:10293000406B000712D5DFF8B000D8F800108863AC
:10294000D8F8380050F00800C8F83800012088F89E
:1029500034000020C8F83000012040E0D8F8000022
:10296000406B800712D5DFF88000D8F8001088632C
:10297000D8F8380050F00200C8F83800012088F874
:1029800034000020C8F83000012028E0D8F800000A
:10299000406BC00612D5DFF85000D8F800108863ED
:1029A000D8F8380050F01000C8F83800012088F836
:1029B00034000020C8F83000012010E040F23A5006
:1029C000D8F800108863012088F83400002006E061
:1029D000D8F8380050F00050C8F8380001200BB08B
:1029E000BDE8F08FA0802542FF05400070B50500CE
:1029F0002E6B2868406B000405D5300703D52800EE
:102A000000F0A6FCD1E02868406BC00557D54FF414
:102A10008070296888632868C16BDFF8E806014088
:102A20002868C1632868C06A400840002968C862F5
:102A3000300722D516F0220F0BD0286800F039FF9E
:102A40000400002C05D0A86B2043A863280001F0E7
:102A5000F7F940F23A5029688863012085F834007C
:102A60000020286316F0030F03D0280001F0F3F9CB
:102A70009BE0280001F0EAF997E0300640F19580EC
:102A8000B0060BD5286800F014FF0400002C05D018
:102A9000A86B2043A863280001F0D2F916F0030FB9
:102AA00040F083802868C06A30F008002968C86256
:102AB000012085F83400280001F0C8F975E0286885
:102AC000406B400405D5300703D5280000F06CFCAE
:102AD0006BE02868406B10F03A0F66D02868406BB6
:102AE000800703D5A86B50F00200A8632868406BEC
:102AF000000703D5A86B50F00800A8632868406B56
:102B0000800603D5A86B50F02000A8632868406BAE
:102B1000C00603D5A86B50F01000A86340F23A50ED
:102B2000296888632868C06B30F49D702968C86381
:102B3000286800F0BEFEA96B0843A863300708D5DB
:102B4000012085F8340000202863280001F078F97E
:102B50002BE0300629D516F0300F0CD00FF23930AB
:102B6000E96B0865E86B01F0F2F900281DD0E86B0D
:102B700000F092F919E016F0030F0CD00FF2653057
:102B8000296C0865286C01F0E2F900280DD0286C4A
:102B900000F0A8F909E00020A863012085F83400BE
:102BA00000202863280001F04CF970BD10B4020029
:102BB000506E800F0870506E800E10F00F0048703D
:102BC000506E000E10F003008870506E000CC8703C
:102BD000506E000A0871506E4871906E000DC880EA
:102BE000906E000C10F00F000872906EC00B10F089
:102BF00001004872906E800B10F001008872906E98
:102C0000400B10F00100C872906E000B10F0010034
:102C1000087300204873506C00283CD1906E40F639
:102C2000FC7313EA8003D06E53EA90730B61D06E8D
:102C3000C00E10F007000875D06E000E10F00700EF
:102C40004875D06E400D10F007008875D06E800C6E
:102C500010F00700C875D06EC00B10F007000876A2
:102C60000869401C50650120536D0C7E14F0070468
:102C7000A41C10FA04F4634353650B7A13F00F039A
:102C800098409065506D936D5B0A5843D0654FF442
:102C90000070106625E0506C012815D1906E00047C
:102CA00010F47C10D36E50EA134008610B695B1C72
:102CB0004FF4806043435365506DD0654FF400700E
:102CC0009065906D10660CE0DFF83C041368986323
:102CD000906B50F080509063012082F83400012006
:102CE0005CE0D06E800B10F001004876D06EC00919
:102CF00010F07F00887692F86C0010F07F00C876A4
:102D0000106FC00F0877106F400F10F00300487766
:102D1000106F800E10F007008877106F800D10F094
:102D20000F00C877106F400D10F0010081F82000EF
:102D3000002081F82100106F000C10F0010081F8D4
:102D40002200106FC00B10F0010081F82300106FFB
:102D5000800B10F0010081F82400106F400B10F080
:102D6000010081F82500106F000B10F0010081F8C0
:102D70002600106F800A10F0030081F82700106F02
:102D8000000A10F0030081F82800106FC0F346001D
:102D900081F82900012081F82A00002010BC70472A
:102DA0000200506C0860906C4860D06C8860106DB8
:102DB000C860506D0861906D4861D06D8861106E7B
:102DC000C8610020704778B589B004000D00032069
:102DD00084F83400606C032821D0B5F5805F04D1FD
:102DE000A06B50F08050A0631DE0B5F5006F07D1D7
:102DF000200000F0A6F90600A06B3043A06312E0AB
:102E0000002D07D1200000F0D0F90600A06B304360
:102E1000A06308E0A06B50F00060A06303E0A06B2B
:102E200050F08050A063A06B002808D0DFF8D802D3
:102E300021688863012084F83400012018E060686C
:102E40000390A0680490E06805900695606907907B
:102E5000A069089003A983B06846182200F0F2FB2D
:102E60000EBC206800F040FC012084F834000020F3
:102E70000AB070BD1CB50400002000906946200017
:102E800000F046F90100002902D0A06B0843A063BE
:102E90000098C0F3432016BD70B50400A56B40F246
:102EA0003A50296888632800FFF7E4FF06000120F4
:102EB00085F8340000202863062E01D0052E05D1A8
:102EC000286800F0F6FCA96B0843A863A86B0028EB
:102ED00003D1280000F0B5FF02E0280000F0B0FFA9
:102EE00070BD000070B50400A56B40F23A5029682F
:102EF00088632800FFF7BEFF0600012085F8340034
:102F000000202863062E01D0052E05D1286800F088
:102F1000D0FCA96B0843A863A86B002803D1280044
:102F200000F08FFF02E0280000F08AFF70BD78B546
:102F30008FB004000120ADF80C00206800F0FEFB0B
:102F4000002802D15FF0806074E0606C03281CD020
:102F5000206800F07AFD0600002E01D0300069E004
:102F60000021206800F006FC60670421206800F062
:102F700001FCA0670821206800F0FCFBE0670C2141
:102F8000206800F0F7FBC4F88000606C032808D0CC
:102F900003A9206800F087FD0600002E01D0300054
:102FA00048E0606C032820D0BDF80C002065216D3E
:102FB0000904206800F060FD0600002E01D03000FA
:102FC00038E00021206800F0D5FB6066042120680D
:102FD00000F0D0FBA0660821206800F0CBFBE06683
:102FE0000C21206800F0C6FB20670421206800F057
:102FF000C1FB000DE06404A92000FFF7D7FD002805
:1030000002D05FF0805015E0226D1204002320688A
:1030100000F069FC0500002D01D028000AE0211D08
:1030200083B06846182200F00DFB0EBC206800F04B
:103030005BFB002010B070BD2DE9FC4107000020B3
:1030400000905FF000080025386800F067FC06007B
:10305000002E01D0300053E0386800F076FC040008
:10306000002C09D00020B864386800F057FC040038
:10307000002C03D0200043E00120B864B86C012884
:1030800009D10021386800F078FC0400002C02D03F
:103090005FF0805034E04FF6FF700099814220D2FB
:1030A000002D1ED10021386800F067FC0600002EBC
:1030B00001D0300024E01549386800F078FC0400A5
:1030C000002C02D05FF080501AE00021386800F038
:1030D00051FB80464046C00F05000098401C009000
:1030E000D9E70099814202D35FF0807008E05FEA7F
:1030F000480002D50120786401E0002078640020B7
:10310000BDE8F681C53EFFFFFF054000000010C18D
:1031100070B506000D00002D02D15FF000600FE0D9
:10312000316D0904306800F0D8FC0400002C01D097
:10313000200005E00021306800F01CFB2860002022
:1031400070BD7CB5060008220021684601F084F8B5
:103150000021306800F00EFB800102D54FF40060C2
:1031600022E06946300000F054F80500002D01D03F
:10317000280019E00198400314D5316D0904306826
:1031800000F0FBFB0400002C01D020000CE0022129
:10319000306800F026FC0100002901D0080003E09F
:1031A000002001E05FF0806076BD7CB5060008225B
:1031B0000021684601F050F80021306800F0DAFA8A
:1031C000800102D54FF4006022E06946300000F033
:1031D00020F80500002D01D0280019E00198C00357
:1031E00014D5316D0904306800F0C7FB0400002CD1
:1031F00001D020000CE00021306800F0F2FB01005B
:10320000002901D0080003E0002001E05FF08060A9
:1032100076BD2DE9F04788B006000F0000F00AFEE9
:1032200080465FF0000908220021684601F014F88A
:10323000BA460821306800F0BAFA0500002D01D026
:10324000280082E0316D0904306800F096FB04002C
:10325000002C01D0200078E05FF0FF3002900820C1
:103260000390302004900220059000200690012059
:10327000079002A9306800F083FA306800F0CBFBB9
:103280000500002D01D028005FE03068406B40F25F
:103290002A41084215D13068406B800207D530685A
:1032A00000F03AFA694641F8290019F1010900F0E5
:1032B000C1FDB0EB080010F1010FE6D15FF0004056
:1032C00043E03068406B000704D50820316888630C
:1032D00008203AE03068406B800704D5022031684E
:1032E0008863022031E03068406B800604D52020DE
:1032F00031688863202028E040F23A5031688863C2
:10330000684641684268120212F47F0252EA016282
:103310004168090A11F47F410A43406852EA106289
:10332000CAF800201AF104010098009A120212F45F
:103330007F0252EA00620098000A10F47F400243C4
:10334000009852EA10620A60002008B0BDE8F087D9
:103350002DE9F0410500D5F82880EC6A002C21D039
:1033600000200600082E1AD2286800F0D5F90700C0
:1033700088F8007018F10100641E3900090A017014
:10338000401C641E3900090C0170401C641E390089
:10339000090E017010F10108641E761CE2E7C5F801
:1033A0002880EC62BDE8F081F8B505002F6A6C6AF0
:1033B000002C24D000200600082E1ED23878009061
:1033C000781C641E0099027851EA02210091401C89
:1033D000641E0099027851EA02410091401C641E6B
:1033E0000099027851EA02610091471C641E694607
:1033F000286800F094F9761CDEE72F626C62F1BD5C
:1034000081B0002000907B48016851F48041016048
:10341000006810F4804000900098002000907648EA
:10342000016851F080510160006810F080500090F8
:10343000009801B070472DE9F84F86B004001421C0
:1034400000226D46280000F011FF20686B49884279
:1034500040F0CD80002005906648016851F400617D
:103460000160006810F40060059005980020059048
:103470006348016851F002010160016811F0020126
:103480000591059900210591016851F00401016041
:10349000016811F004010591059900210591016869
:1034A00051F008010160006810F0080005900598CF
:1034B000072000900220019000200290032003903A
:1034C0000C20049069464F4800F004FF4FF4106050
:1034D00000900220019000200290032003900C2015
:1034E00004906946484800F0F5FE04200090022050
:1034F000019000200290032003900C200490694664
:10350000424800F0E7FEDFF808B14248CBF800007F
:103510005FF00065CBF804500020CBF808000020D5
:10352000CBF80C004FF48066CBF810604FF4805756
:10353000CBF814704FF48048CBF818802020CBF8DB
:103540001C000020CBF820000420CBF8240003202E
:10355000CBF828005FF40009CBF82C905FF4001A38
:10356000CBF830A0584600F081FC002803D05E2143
:10357000294800F0F8FFC4F840B0CBF83840DFF835
:103580009CB02748CBF80000CBF804504020CBF883
:1035900008000020CBF80C00CBF81060CBF81470BA
:1035A000CBF818802020CBF81C000020CBF820009E
:1035B0000420CBF824000320CBF82800CBF82C9073
:1035C000CBF830A0584600F051FC002803D0712100
:1035D000114800F0C8FFC4F83CB0CBF838400022D6
:1035E0000021312001F03AF8312001F04CF807B009
:1035F000BDE8F08F4438024040380240002C0140C2
:10360000303802400004024000080240000C024032
:10361000A80B0020586402405CCF0008080C002072
:10362000A064024062B38B0708D0521E11F8013B20
:1036300000F8013B00F024808B07F6D1830740F0AF
:10364000208000BF103A07D330B4B1E83810103AE8
:10365000A0E83810F9D230BC530724BFB1E80810F5
:10366000A0E8081044BF51F8043B40F8043BD207DF
:1036700024BF31F8022B20F8022B44BF0B780370D3
:103680007047121F17D35B0009D151F8043B20F893
:10369000023B1B0C121F20F8023BF6D20BE051F844
:1036A000043B00F8013B1B0A20F8023B1B0C121FD5
:1036B00000F8013BF3D238BF121D521E24BF11F88F
:1036C000013B00F8013BF8D87047B1F5807F02D389
:1036D0004FF0FF3070470170012070470078401EA6
:1036E0008041C043C00F70470EB401000022009B10
:1036F0000198034302980343039803430498034348
:10370000059803431A434B68DFF81407034013433B
:103710004B60002003B07047D0F880007047020073
:103720000868C2F880000020704710B5040003202C
:103730002060022000F0C4FF002010BD006810F0DF
:103740000300704710B402000023086890604C68C2
:1037500088680443C8680443086904432343D06865
:10376000000B00031843D060002010BC70470069B4
:10377000C0B27047020012F11400081800687047C8
:1037800010B40200002308685062486890628C6898
:10379000C868044308690443486904432343D06A62
:1037A00030F0F7001843D062002010BC704730B5ED
:1037B00085B004000D00009510200190402002907B
:1037C000002003904FF48060049069462000FFF7CA
:1037D000B9FF41F288321021200000F0B2F905B0A3
:1037E00030BD30B585B004000D000095112001906A
:1037F00040200290002003904FF4806004906946BE
:103800002000FFF79FFF41F288321121200000F0D5
:1038100098F905B030BD30B585B004000D000095B5
:103820001220019040200290002003904FF480600D
:10383000049069462000FFF785FF41F2883212218B
:10384000200000F07EF905B030BD30B585B0040031
:103850000D00009518200190402002900020039058
:103860004FF48060049069462000FFF76BFF41F23F
:1038700088321821200000F064F905B030BD30B561
:1038800085B004000D0000951920019040200290A1
:10389000002003904FF48060049069462000FFF7F9
:1038A00051FF41F288321921200000F04AF905B099
:1038B00030BD18B585B00400002000900C200190A8
:1038C00040200290002003904FF4806004906946ED
:1038D0002000FFF737FFDFF84C250C21200000F017
:1038E00030F906B010BD78B585B0060014001D0093
:1038F00000940720019040200290002003904FF494
:103900008060049069463000FFF71CFF41F2883266
:103910000721300000F015F906B070BD18B585B06C
:103920000400002000900020019000200290002060
:1039300003904FF48060049069462000FFF702FF77
:10394000200000F0E4F806B010BD18B585B0040002
:103950004FF4D57000900820019040200290002084
:1039600003904FF48060049069462000FFF7EAFE60
:10397000200000F025FA06B010BD30B585B0040077
:103980000D00009537200190402002900020039008
:103990004FF48060049069462000FFF7D3FE41F2A7
:1039A00088323721200000F0CCF805B030BD30B5AA
:1039B00085B004000D00DFF8700428430090292032
:1039C000019040200290002003904FF4806004900A
:1039D00069462000FFF7B6FE200000F07AF905B036
:1039E00030BD30B585B004000D0000950620019073
:1039F00040200290002003904FF4806004906946BC
:103A00002000FFF79FFE41F288320621200000F0DF
:103A100098F805B030BD18B585B0040000200090BE
:103A20003320019040200290002003904FF48060EA
:103A3000049069462000FFF785FE41F28832332169
:103A4000200000F07EF806B010BD18B585B0040067
:103A50000020009002200190C020029000200390DE
:103A60004FF48060049069462000FFF76BFE200051
:103A700000F004F906B010BD30B585B004000D00AB
:103A8000009509200190C0200290002003904FF47F
:103A90008060049069462000FFF754FE200000F08B
:103AA000EDF805B030BD30B585B004000D00002044
:103AB00000900320019040200290002003904FF4DA
:103AC0008060049069462000FFF73CFE2A00032135
:103AD000200000F022F905B030BD30B585B00400FB
:103AE0000D0000950D2001904020029000200390D1
:103AF0004FF48060049069462000FFF723FE41F2F6
:103B000088320D21200000F01CF805B030BD010006
:103B1000DFF818030068C0084FF47A72B0FBF2F2C5
:103B200041F2883042431000421E002802D15FF06B
:103B3000004005E0486B0006F5D5C52088630020ED
:103B400070472DE9F04104000D001600DFF8DC029B
:103B50000068C0084FF47A71B0FBF1F808FB06F872
:103B60004046B0F10108002802D15FF0004083E038
:103B7000606B070017F0450FF2D03805F0D4606B8A
:103B8000400703D50420A063042075E0606BC007E4
:103B900003D50120A06301206EE0C520A0632000B2
:103BA000FFF7E5FD2900C9B2884201D0012063E09A
:103BB00000212000FFF7DEFD01009D48014201D1F8
:103BC000002059E0002902D55FF0007054E0480061
:103BD00001D5402050E0880001D580204CE0C8008D
:103BE00002D54FF4807047E0080102D54FF4007011
:103BF00042E0480102D54FF480603DE0C80102D5A3
:103C00004FF4006038E0080202D54FF4805033E0F2
:103C1000480202D54FF400502EE0880202D54FF43E
:103C2000804029E0C80202D54FF4004024E0480358
:103C300002D55FF400301FE0880302D55FF48020D6
:103C40001AE0C80302D55FF4002015E0080402D58D
:103C50005FF4801010E0480402D55FF400100BE020
:103C6000880402D55FF4800006E0080702D55FF4FF
:103C7000000001E05FF48030BDE8F08101006B4896
:103C80000068C0084FF47A73B0FBF3F341F2883058
:103C900043431800431E002802D15FF0004017E0A4
:103CA000486B020012F0450FF3D01005F1D4486BB9
:103CB000400703D504208863042009E0486BC0074F
:103CC00003D501208863012002E0C520886300201D
:103CD0007047010055480068C0084FF47A73B0FB84
:103CE000F3F341F2883043431800431E002802D109
:103CF0005FF0004010E0486B020012F0450FF3D077
:103D00001005F1D4486B400703D5042088630420D4
:103D100002E0C5208863002070472DE9F0410400CF
:103D20000D00160041480068C0084FF47A71B0FBDE
:103D3000F1F841F2883000FB08F84046B0F1010884
:103D4000002802D15FF0004038E0606B070017F0F8
:103D5000450FF2D03805F0D4606B400703D504203E
:103D6000A06304202AE0606BC00703D50120A06394
:103D7000012023E02000FFF7FAFC2900C9B28842A5
:103D800001D001201AE0C520A06300212000FFF728
:103D9000F1FC010011F4604F04D10800000C3080E8
:103DA00000200BE0480402D54FF4005006E0080460
:103DB00002D54FF4805001E05FF48030BDE8F0811F
:103DC00001001A480068C0084FF47A73B0FBF3F39F
:103DD00041F2883043431800431E002802D15FF0AF
:103DE00000401AE0486B020012F0450FF3D01005B6
:103DF000F1D4486B400703D50420886304200CE00D
:103E0000486BC00703D501208863012005E0486B9B
:103E1000400601D540208863002070470000000064
:103E20000081FFFF00E1F505000010800400002084
:103E300008E0FFFD01480068704700BF64110020E2
:103E4000704710B5040000F00BF810BD10B5040069
:103E500000F04AFC10BD10B5040000F046FC10BD97
:103E600070470268531C03601170704770B50400FE
:103E70000026FFF7DFFF0500002C01D1012065E0DF
:103E8000606A0028002084F83400022084F835009D
:103E900020680068400840002168086020680068C9
:103EA000C0070BD5FFF7C6FF401B0628F6D320201E
:103EB0006065032084F83500032047E0206801682E
:103EC000DFF8EC0201406268A0680243E068024348
:103ED0002069024360690243A0690243E06902432A
:103EE000206A02431143606A042803D1E26A206B0E
:103EF000024311432068016020684669F608F60015
:103F0000606A0643606A042810D1A06A0643E06A2A
:103F100000280BD0200000F051F9002806D04020E6
:103F20006065012084F8350001200FE020684661BB
:103F3000200000F024F901003F22E06D82408A60F9
:103F400000206065012084F83500002070BD01006C
:103F500091F83500022803D080204865012009E04F
:103F6000052081F8350008680068400840000A68AC
:103F7000106000207047F8B5040000200090DFF8C2
:103F8000340200684FF41651B0FBF1F5A66D3768A6
:103F90000821E06D11FA00F0074210D02068006897
:103FA00040070CD52068006830F0040022681060DB
:103FB000E06D8140B160606D50F001006065E06DC2
:103FC0003900C140C8070BD520684069000607D5F5
:103FD0000121E06D8140B160606D50F002006065CC
:103FE0000421E06D11FA00F007420AD02068006851
:103FF000800706D5E06D8140B160606D50F004002F
:1040000060651021E06D11FA00F007422CD02068A5
:104010000068000728D5E06D8140B1602068006825
:10402000400311D520680068000306D4206C0028E6
:104030001AD02000216C884716E0A06C002813D00D
:104040002000A16C88470FE020680068C00505D4F7
:104050002068006830F0080021680860206C0028A3
:1040600002D02000216C88472021E06D11FA00F079
:1040700007425FD020680068C0065BD5E06D8140D4
:10408000B16094F83500052828D12068006830F028
:104090001600216808602068406930F080002168BF
:1040A0004861206C002802D1A06C002805D020684F
:1040B000006830F00800216808603F21E06D814011
:1040C000B160002084F83400012084F83500206DB0
:1040D000002802D02000216D88474FE0206800684A
:1040E000400311D520680068000306D4606C0028E6
:1040F00020D02000616C88471CE0E06B002819D0BC
:104100002000E16B884715E020680068C0050BD4EB
:104110002068006830F0100021680860002084F8F2
:104120003400012084F83500E06B002802D0200024
:10413000E16B8847606D002820D0606DC00717D5FF
:10414000052084F835002068006840084000216898
:1041500008600098401C0090854203D320680068E6
:10416000C007F6D4002084F83400012084F835001C
:10417000E06C002802D02000E16C8847F1BD017896
:1041800001F0FF0110391822B1FBF2F10A4A525C2A
:10419000C265042905D30268920A9202121D826543
:1041A00003E00268920A92028265806D7047000007
:1041B0003F8010F00400002078D1000810B4020005
:1041C0000020936A9169002916D1002B05D0022B9B
:1041D00003D008D3032B0DD00DE0D16AC90101D55E
:1041E0000121080035E0D16AB1F1C07F01D1012180
:1041F00008002EE02DE02CE09169B1F5005F18D1A8
:10420000002B05D0022B03D005D3032B09D00FE0E0
:10421000012108001DE0D16AC90101D50121080072
:1042200017E0D16AB1F1C07F01D10121080010E08F
:104230000FE019000029022902D9C91E03D008E0A5
:104240000121080005E0D16AC90101D5012108005A
:10425000FFE7C0B210BC704710B5044610460A46CE
:104260000146204600F002F8204610BD62F30F22FE
:1042700062F31F42401810F0030308D0C91A1FD37D
:10428000DB0748BF00F8012D28BF20F8022D1300DE
:1042900030B414461546103928BF20E93C00FAD83E
:1042A000490728BF20E90C0048BF40F8042D8900C9
:1042B00028BF20F8022D48BF00F8012D30BC704700
:1042C000C91818BF00F8012DCB0728BF00F8012D31
:1042D00070470010F8B50023002400260025102D9B
:1042E00080F0FA80012717FA05F213000A681A40D5
:1042F00014009C4240F0EE804A68012A08D04A68C7
:10430000022A05D04A68112A02D04A68122A1FD10F
:10431000D0F808C05FF0030E2A00D2B252001EFA95
:1043200002FE3CEA0E0CD1F80CE02A00D2B2520098
:104330001EFA02FE5EEA0C0CC0F808C04268AF40EC
:10434000BA434F68C7F30017AF403A4316004660C0
:10435000C7685FF0030C2A00D2B252001CFA02F2C6
:104360009743D1F808E02A00D2B252001EFA02FEAA
:104370005EEA0707C7604A68022A02D04A68122A22
:104380001ED12A00D20800EB8202166A5FF00F0EDF
:1043900015F00702D2B292001EFA02FE36EA0E06AD
:1043A000D1F810E015F00702D2B292001EFA02FE18
:1043B0005EEA060637002A00D20800EB8202176286
:1043C00006682A00D2B252001CFA02FC36EA0C0639
:1043D00091F804C01CF0030C2A00D2B252001CFA5F
:1043E00002FC5CEA060606604A68D20072D500222A
:1043F00000924E4A176857F480471760126812F40B
:1044000080420092009ADFF828C12A0092085CF8E6
:1044100022705FF00F0E15F00302D2B292001EFA66
:1044200002FE37EA0E07434A904201D100261EE001
:10443000414A904201D1012619E0404A904201D1FF
:10444000022614E03E4A904201D103260FE03D4A85
:10445000904201D104260AE03B4A904201D1052650
:1044600005E03A4A904201D1062600E00726F6B25E
:1044700015F00302D2B29200964037432A00920808
:104480004CF82270324E3268A243D1F804C05FEA81
:10449000CC3C00D5224332602E4F3E68A643D1F873
:1044A00004C05FEA8C3C00D526433E602A4F3A6840
:1044B000A243D1F804C05FEACC2C00D522433A6075
:1044C000264F3E68A643D1F804C05FEA8C2C00D585
:1044D00026433E606D1C02E7F1BD020010690B002F
:1044E0009BB2184201D0012000E00020C0B270470A
:1044F0001300DBB2002B03D00B009BB2836103E0FF
:104500000B009BB21B048361704710B50400144874
:104510000168220092B2114206D0210089B20160E6
:10452000200080B200F01EF810BD000044380240A8
:104530000838014000000240000402400008024028
:10454000000C02400010024000140240001802401B
:10455000003C0140043C0140083C01400C3C01404F
:10456000143C01407047704710B410F00703DFF8A7
:10457000304122684FF6FF010A40DFF8281151EA66
:1045800003210A43226010BC7047DFF81401006861
:10459000C0F302207047010049B2002909D401226A
:1045A00010F01F018A40404903005BB25B0941F8EB
:1045B0002320704710B4020052B2002A05D40A0129
:1045C0003A4B040064B21A5508E00A01384B040063
:1045D00064B214F00F04234403F8042C10BC704799
:1045E00070B4030013F00704D4F10700052801D3C9
:1045F000042001E0D4F10700251D072D01D200257C
:1046000000E0E51E012616FA00F0401E0140A94018
:1046100016FA05F56D1E2A401143080070BC70475C
:1046200010B50400601EB0F1807F01D301200EE0C0
:10463000601E204908600F215FF0FF30FFF7BAFFCE
:1046400000201D49086007201C490860002010BD9B
:1046500010B504002000FFF787FF10BD2DE9F041E1
:1046600004000D0016000027FFF78FFF8046320080
:1046700029004046FFF7B4FF0100200040B2FFF7D9
:1046800099FFBDE8F08110B50400200040B2FFF7AB
:1046900082FF10BD10B504002000FFF7C1FF10BD60
:1046A0000CED00E00000FA0500E100E000E400E0AD
:1046B00018ED00E014E000E018E000E010E000E099
:1046C00070B50400FFF7B6FB0500260016F1010FD8
:1046D00002D0044800783618FFF7ACFB401BB0420C
:1046E000FAD370BD8E000020704770472DE9F14F5E
:1046F000B2B09946924600230691CDE900333C9A28
:104700000F930DF14A0114914A7011E0329E574601
:104710002C4617F8011B0698B0470028069000F0B9
:1047200026810F98401C641E0F90F2D13296AA4445
:104730009AF80000252808D10021002209910A9248
:104740000B910C920D910E920FE06A464FF0FF31E3
:10475000504601F079F8050002D10F9800F066BECE
:10476000D4D50125E3E741F001011AF8010F202813
:10477000F9D023280CD02B2804D02D2805D03028A0
:1047800009D00BE041F00201EFE741F00401ECE752
:1047900041F00801E9E741F01001E6E72A280FD1CE
:1047A000D9F8002052F8040BC9F800200028119015
:1047B00003D54042119041F004010AF1010A14E0CE
:1047C0001192DFF8EC3B0AE01198984205DA00EB11
:1047D000800402EB4402303A11920AF1010A9AF87D
:1047E0000020A2F130000A28EED39AF800002E280B
:1047F00003D04FF0FF32109229E01AF8010F2A2857
:1048000009D1D9F8000050F8042BC9F80000109223
:104810000AF1010A1BE02D280CBF0AF1010A002051
:1048200000221092DFF8882B0BE040B9109B9342D6
:1048300005DA03EB830504EB4504303C10940AF1E0
:10484000010A9AF80040A4F130030A2BEDD3ADF829
:1048500048100FF660309AF8001000F0FFFF08B122
:104860001AF8010B8DF84A009DF84A00682805D116
:104870009AF8000068280CD1622106E06C2804BF79
:104880009AF800006C2804D171218DF84A100AF1C1
:10489000010A1FA808901AF801BBBBF125012DD011
:1048A0001C3900F06181091F022940F25D810E3937
:1048B0002AD0491F00F0B384093900F05581891EC0
:1048C00000F04985491E00F0F584491E022940F296
:1048D0004B81091F00F0EE84491F00F0BA80491E89
:1048E00000F09D84491E65D0C91E21D0891E00F0AC
:1048F0009684C91E00F0938400F04CBD25238DF8EA
:104900007C30012109912AE06C208DF84A00D9F809
:10491000000050F8042BC9F80000002A43D1149974
:10492000487800283DD04FF0FF340FF6902012E079
:104930009DF84A006C28EAD0D9F8000050F8044BE2
:10494000C9F800000794D4B91499487898B14FF089
:10495000FF340FF6842000F08DFF201A07D1329823
:104960001FAA04A900F065FD00287FF5E1AE4FF015
:10497000FF3000F05BBD0FF67C200790EFE7109D45
:10498000002D04D5204600F095FF044607E02A4696
:10499000204600F0ABFF002814BF041B2C460A94ED
:1049A000DDE70FF65422329804A900F0C8FD002874
:1049B000D5D5DCE7D9F8001051F8040BC9F8001080
:1049C00020F00004002121F0FF351FABCDE90445A4
:1049D0000793DDE9042308993C2413B90AB9109818
:1049E00098B102F00F053035641EEEB23A2EA8BF22
:1049F0002735120942EA03721B090D5508BF002A28
:104A000003D007980D19A842EBD308190790C4F1F9
:104A10003C0210980A92824209DABDF84810821AC4
:104A20004FF6EF7001400C92ADF8481097E7002860
:104A300095D59DF8480000F0140010288FD1119BE7
:104A400009990C985B1A1B1A9A1A002A87DD0C9296
:104A500085E71499487820B14FF0FF340FF69C1089
:104A600079E79DF84A00622862D0682819D06A2840
:104A700040D06C2806D071284DD074282DD07A28CB
:104A80001ED064E0D9F8001051F8040BC9F80010EA
:104A900020B94FF0FF340FF67C105CE70F990160EE
:104AA0005DE7D9F8001051F8040BC9F8001020B9DF
:104AB0004FF0FF340FF65C104DE70F9901804EE781
:104AC000D9F8001051F8040BC9F800100028E5D1FE
:104AD0004FF0FF340FF63C103DE7D9F8001051F8C5
:104AE000040BC9F800100028D8D14FF0FF340FF69E
:104AF000241030E7D9F8001051F8040BC9F8001061
:104B000020B94FF0FF340FF60C1024E70F9AD3179B
:104B1000C0E9002323E7D9F8001051F8040BC9F8C5
:104B200000100028F2D14FF0FF340FF6E80012E732
:104B3000D9F8001051F8040BC9F8001020B94FF053
:104B4000FF340FF6D00006E70F99017007E7D9F898
:104B5000001051F8040BC9F8001000289ED14FF046
:104B6000FF340FF6B000F6E6D9F80020D21D22F08F
:104B70000702C9F80020D2E900010832C9F8002074
:104B8000CDE90401C80F02D009982D210AE0BDF833
:104B90004800810702D509982B2103E0C00705D5FD
:104BA000099820211FAA1154401C0990DDE9042313
:104BB00009991FA8CDE92E2308444BF02001612953
:104BC000079015AC0BD01099002902D50621109141
:104BD00005E001BF4BF02001672901221092DDE9B9
:104BE000042359004915491C10D11A030ED0ABF10A
:104BF000610503211A2D0A9102D20FF6A43101E0BA
:104C00000FF6A0310322FEF70DFDA8E65900491565
:104C1000491C0AD11A0308D1ABF1610503211A2DF1
:104C20000A9116D30FF68431ECE7DDE90401CDE9F2
:104C30003001DDE9302323F00047B7F5801F22F073
:104C400000060DD20022002F08BF002E029203D1D1
:104C500016E00FF65431D5E702AA00F073FE0FE01C
:104C6000DFF8EC0ADFF8EC1A00EB17500290DDE9F0
:104C700030234FF0FF301940DFF8DC7A1040394321
:104C8000CDE904014BF0200061280DD107983021B7
:104C90000170821CBBF1610F07920CBF7821582173
:104CA00041700998801C0990DDE9040120F00002A0
:104CB00031F0004308BF002A02D10026002571E12F
:104CC0004BF02008B8F1610F40F0BE80109800282A
:104CD00047BF21210391401C0390039FDDE92E0172
:104CE0007F1C00220023DDE9044500F063FE0299E9
:104CF0008DF8542038BF85F00045091F002F029120
:104D00000DF155065DDDDFF8541ACDE9302140F292
:104D1000FF732E93204629460022002300F062FEF6
:104D20004FD24800400D00F11C0215D0002A13DDBF
:104D30002E9B9A420ADBDDE9300121F0004205F0AA
:104D400000400243DDE93001114611E06FF31E51CE
:104D500041EA025120460BE024F0000035F000410A
:104D600008BF00280FBF29461C22294600F052FE2A
:104D700004460D4600F0ECFEFF1F002F804609DDC3
:104D800000F004FF02460B462046294600F010FFC3
:104D900004460D46F01D0721B8F1000F0CDD491E39
:104DA0005EBF08F00F0200F8012D4FEA2818F3D576
:104DB00002E0002200F8012D491EFAD5C61D002F81
:104DC000A8DC0DF15500361A03988642D8BF30464C
:104DD00000280DF1550430D4B04206DA0DF155012A
:104DE0000A5C082AA8BF0F2100DA0021024615AB91
:104DF000134400E0401E13F80159521E8D42F9D0B1
:104E00000F2904D10DF155018B5C5B1C8B54002ADA
:104E100004D50299091D15AC401C0291411E0CD409
:104E20006218ABF13A0613783033DDB23A2DA8BFE1
:104E3000F318491E02F80139F5D51099002940F1FF
:104E4000AF80421E1092ABE00299DFF8142947F2BE
:104E50009750414391FBF2F2DDE92E45029225F095
:104E60000045D2F1070204DD2046294600F04CFC43
:104E70000BE052420020DFF8EC1800F045FC02463F
:104E80000B462046294600F005FF0446B8F1660FA0
:104E9000109806BF029F0A3706273F18142FC8BF75
:104EA000142730208DF854000D460020DFF8B81884
:104EB000CDE92E010DF15506002F33DD20462946A0
:104EC00001F00CF801460A4606F1080304200A2600
:104ED000B2FBF6F606EB860EA2EB4E02303203F87A
:104EE000012C0A22B6FBF2F202EB820EA6EB4E0672
:104EF0003036401E03F8026DE9D1083F002F03F160
:104F00000806D9DD084600F0FDFF02460B462046A4
:104F1000294600F04DFEDDE92E2301F001F804469C
:104F20000D46CBE70DF15500361A0DF1550404E09E
:104F30000298401E761E0290641C20783028F7D01C
:104F4000B8F1660F02D10299491C04E0B8F1650F6F
:104F50000CBF01210021109808188642B8BF701EAE
:104F600000281DD4B04204DA215C3429C8BF39219D
:104F700000DC30210246631E9D1800E0401E15F83B
:104F80000169521E8E42F9D0392902D1A15C491C17
:104F9000A154002A04D50299491C1C46401C0291C8
:104FA0000646029D00F054FC406A0778DDF8408018
:104FB00030B2002802DC01260FF2F4744BF020001E
:104FC000662808BF6D1C16D0672846D128B210F19C
:104FD000040F48DB404546DA9DF848006D1C010788
:104FE00003D430B24045B8BF804628B2B8EB0008C1
:104FF00048BF4FF000080FFA85FB07980A99BBF1EC
:10500000000F00F3B2804A1C0A9230234354B8F1D7
:10501000000F03DC9DF84800010704D50A98411CE5
:105020000A9107990F5418EB0B0FB8BFC8F1000590
:105030002DB268420D90A84432B29045B8BF4646A2
:10504000079B0A9836B20B96324621461844FEF763
:10505000E9FAA8EB06000E90CBE0BBF1610F17D187
:105060004FF0700B19E030B2404504DA9DF848105B
:105070000A0758BF8046B8F1010848BF4FF0000842
:10508000BBF1670F14BF4FF0450B4FF0650B04E009
:10509000BBF1410F08BF4FF0500B0A98411C0A9119
:1050A000B8F1000F079914F8012B0A5403DC9DF89E
:1050B000480001071AD50A98411C0A91B8F1000F5F
:1050C00007990F5412DD761E30B2804507980A9B6F
:1050D000B8BF464632B221461844FEF7A3FA0A99F1
:1050E00036B271180A91A8EB06000D9007980A993C
:1050F00008442AB2002A80F800B003D42B22427060
:10510000811C04E02D2141701546811C6D42002058
:105110002EAA0A2409E02B4693FBF4F505EB85063D
:10512000A3EB460302F8013B401C2DB2002DF2DC3C
:10513000012806DC4BF02002652A04BF302201F86A
:10514000012B00282EAA08D1302001F8010B06E01F
:10515000401E135C303301F8013B0028F8DC079A4D
:105160000A981044091A0B9143E0084431B22AB25C
:10517000914219DA32B22146FEF754FA0A9936B250
:105180007118ABEB0606B8F1000F0A910D9603DC1F
:105190009DF84800020704D5079847540B99491C0D
:1051A0000B91CDF8388024E02146FEF73BFA0A98AF
:1051B000761B5844B8F1000F0A9003DC9DF84810A4
:1051C0000A0703D5411C0A9107990F5430B2804554
:1051D00007980A9BB8BF464632B204EB0B0118444D
:1051E000FEF720FA0A9836B230180A90A8EB0600AB
:1051F0000D909DF8480000F0140010287FF4AFAB2C
:10520000099A0A990D988A180B9982180E988A188B
:10521000821811988242BFF6A2AB821A17E49DF859
:105220004A00622808D068280ED06A2814D06C285A
:105230001FD0712810D01CE0D9F8001051F8040BD1
:10524000C9F80010C0B21AE0D9F8001051F8040BE8
:10525000C9F8001080B212E0D9F80020D21D22F067
:105260000702C9F80020D2E900010832C9F800207D
:1052700006E0D9F8001051F8040BC9F8001000211D
:10528000CDE904019DF8480001075AD5DDE9042362
:10529000002B08BF002A54D04BF02000782850D1B2
:1052A00009981FA930220A54401C431C099301F895
:1052B00000B046E09DF84A00622808D068280ED069
:1052C0006A2814D06C281FD0712810D01CE0D9F89F
:1052D000001051F8040BC9F8001040B21AE0D9F8D8
:1052E000001051F8040BC9F8001000B212E0D9F810
:1052F0000020D21D22F00702C9F80020D2E90001E7
:105300000832C9F8002006E0D9F8001051F8040B63
:10531000C9F80010C117CDE90401002902D5099888
:105320002D210AE0BDF84800810702D509982B21FC
:1053300003E0C00705D5099820211FAA1154401C7D
:1053400009901FA809990144079104A8594600F043
:1053500056F9FFF704BB9DF84A006C280BD00121D9
:105360000991D9F8000050F8041BC9F800008DF825
:105370007C10FFF7F4BAD9F8000050F8041BC9F804
:10538000000015914FF0FF3210920021169115AADE
:10539000FFF709BB25210122BBF1000F8DF87C101E
:1053A00009923FF4DCAA8DF87DB00221FFF7AABA7A
:1053B000CBCCCC0C686A6C747A4C00007072696E4D
:1053C00074665F733A2062616420256C7320617299
:1053D00067756D656E7400007072696E74665F73D8
:1053E0003A2062616420257320617267756D656E75
:1053F0007400000000000000000000007072696E80
:1054000074665F733A20256E20646973616C6C6FFB
:10541000776564007072696E74663A206261642018
:10542000256E20617267756D656E740033B0BDE8DE
:10543000F08F2DE9FC410F46064690467A6B78695D
:10544000396ABC6A121AB869521A796A121AF8696A
:10545000521A121A97F83800141B41070FD4202053
:10546000002C8DF800000ADD254601236A463946E6
:10547000304600F07DF900285DD16D1EF5D17B69C5
:1054800042463946304600F073F9002853D13020A7
:105490008DF800003D6A002D09DD01236A4639467A
:1054A000304600F065F9002845D16D1EF5D1BB6985
:1054B000FA683946304600F05BF900283BD13020CD
:1054C0008DF800007D6A002D08DD01236A4639460B
:1054D000304600F04DF970BB6D1EF6D1F868B96921
:1054E000FB6942183946304600F042F918BB3020BB
:1054F0008DF80000BD6A002D08DD01236A4639469B
:10550000304600F035F9B0B96D1EF6D197F8380085
:1055100041070DD52020002C8DF8000008DD012367
:105520006A463946304600F023F920B9641EF6D1A8
:105530000020BDE8F6814FF0FF30BDE8F6812DE98F
:10554000F8470D46A3B02F6B002F8246904648BF08
:105550006FF0004700F0B5FD696B401801AA00210B
:10556000C2E90011812828BF4FF0FF3044D289469C
:105570001EE0A74230DB6869201881280BD3002188
:10558000696303AA29465046FFF753FF5FEA000903
:1055900022D40020686103AB6E69224669469819DF
:1055A000FEF740F8A6196E6158F8040BA0B13F1B36
:1055B000002F11DDD8F8001001AA684600F046F966
:1055C0000446002C05D4D8F800000028D1D1641E70
:1055D000CFD54FF0FF390EE0B9F1000F504604D19E
:1055E00003AA2946FFF725FF8146B9F1000F02D132
:1055F000002068616863484624B0BDE8F0872DE963
:10560000FC4307466F293E6908BF082405D041F0D6
:105610002000782814BF0A2410243C25D7E9002351
:10562000642918BF69299046994605D1002B03D5F6
:10563000D8F1000869EB4909B9F1000F08BFB8F1CA
:10564000000F0CD1386B50B9082C39D197F83800BD
:10565000010735D530203B2586F83B0030E08DF83A
:105660000010404649462246E31700F02FFD303235
:10567000D0B26D1E3A28019504DB9DF80000A0F120
:1056800051018A187255404649462246E31700F0F8
:105690001DFD80465FEA010908BFB8F1000F03D085
:1056A000F86871198842DCD3082C09D197F83800C2
:1056B000010705D5705D302802D06D1E3020705571
:1056C000C5F13C02BA617119F960386B824208DA9F
:1056D000821A3A624FF6EF70398F01403987BDE880
:1056E000F38300280ED597F8380000F01400102836
:1056F00008D17B6B7969386A5B1A1B1A9A1A002ADF
:10570000C8BF3A62BDE8F3832DE9D04306460F4691
:1057100014464FF00008DFF8549012E0E00707D578
:1057200042464B463046394600F0FAFB06460F46E5
:105730004046494642464B4600F0F2FB6410804624
:105740008946002CEAD130463946BDE8D0830000B6
:1057500002FCFFFFFFFF0F800000E03F0000F07F32
:10576000A08601000000F03F84D79741000024404C
:10577000F8B505460E4617461C4600205CB117F8E2
:10578000011BB068A847B06030B1F06A401CF062FD
:105790000020641EF3D1F2BD4FF0FF30F2BD0000D7
:1057A0006E616E004E414E00696E6600494E4600C5
:1057B00030002E00FFE741381A288041C00F7047A3
:1057C000A0F10901052901D3202801D1012070474A
:1057D00000207047A0F141011A2938BF20307047DE
:1057E0001C48704770B45368D41801E05B1C491E14
:1057F000042B08DA00291FBF057804F8015B10F8B4
:10580000016B002EF2D1536070BC704738B514465E
:105810001D4661B1FFF7E6FF61686A6B204690475D
:105820006FF00102811A02D0491E01D001E003E0AD
:1058300005E00021616032BD6FF0010032BD4FF024
:10584000FF3032BDDA6B1047024BDFE7014BF9E75F
:10585000014870474000002008000020C9B20278CB
:105860008A421AB11CBF10F8012FF9E718BF0020B7
:105870007047430080B500B906A005490B681BB10D
:1058800022220021984701E000F038FD222002BDCD
:105890006C110020636F6E73747261696E7420689E
:1058A000616E646C65723A20626164206D65737329
:1058B0006167650000F10103810704D010F8011B46
:1058C000820781B1FAD10268A2F10131914311F04E
:1058D000803104BF50F8042FF6E709BAB1FA81F11C
:1058E00000EBD100401CC01A70470000C9B283070A
:1058F00006D0521E22D310F8013B9942F7D11FE087
:10590000083A13D302F1040241EA012141EA0141BC
:1059100050F8043B121F21BF4B40A3F1013C2CEA7D
:10592000030C1CF0803FF3D0C9B2001F083210F8FE
:10593000013B521E28BF91EA030FF8D818BF01207F
:10594000401E704710B5144600F002F8226010BDEA
:10595000C1F30A5343B14A0012F5001F28D2A3F243
:10596000FE32A1EB0251704750EA410C20D001F009
:10597000004C31EA0C01B1FA81F204BFB0FA80F3B5
:10598000D2180B3AB2F120032CBF00FA03F1914078
:1059900041EA0C013EBFC2F1200C20FA0CF319437E
:1059A0009040524240F2FD33D21A01EB035170474E
:1059B000002270474FF4001C1CEB410F94BF1CEBFE
:1059C000430F09E041EA030C50EA4C0C52EA0C0C7C
:1059D00003D2994208BF9042704714BF8B42824263
:1059E000704700004FF4001C1CEB410F94BF1CEBF0
:1059F000430F09E041EA030C50EA4C0C52EA0C0C4C
:105A000003D28B4208BF8242704714BF9942904232
:105A100070470000124254D440F2FF7C1CEA11533C
:105A20000FD0634531D09B1863453CBF01EB025159
:105A3000704701F0004141EA0C510020AFF30080B3
:105A4000704750EA410320D001F0004C91EA0C016C
:105A50001CD0B1FA81F30B3B9A420DD9D21A99406E
:105A600051EA0C01C3F1200C20FA0CFC614498406F
:105A7000531C40F2FF7CD7E7914041EA0C01C2F190
:105A8000200C20FA0CF3194390407047B0FA80F3D1
:105A90001533202BE0D3202AEED3203A203B9A4224
:105AA00009D9D21A00FA03F141EA0C010020531C73
:105AB00040F2FF7CB8E700FA02F141EA0C01002055
:105AC0007047524240F2FF7C1CEA11530DD06345EF
:105AD000DBD0B2EB030C3CBFA1EB025170470CF1E1
:105AE000010221EA035141F4801150EA410CCCD06B
:105AF00001F0004C352A27DC30B481EA0C01B2F108
:105B0000200309DAC2F12003044601FA03F5D0406C
:105B10002843D1409C400CE0C3F12002450020FA0C
:105B200003F418BF44F0010421FA03F091400C4340
:105B3000002174F1004550F1000051EB0C012442AA
:105B400030BC7FF47BAF70476146002076E70000F1
:105B5000C1F30A5340F2FE329B1A14DDD3F1200345
:105B60004FEAE17208DDC90241EA505141F00040BC
:105B7000D84080185040704703F2E13010B1D24352
:105B800082F000407047002070470000C11768B1E4
:105B90004840401AB0FA80F29040D21CC907C2F5C2
:105BA000846241EA025202EBD021400570470000B6
:105BB00070B44FF0004591EA030F40F1A3836B40AE
:105BC000841A71EB030603D2001BB1411219734111
:105BD0004FF4001C1CEB410F34BF7CEB430442E04C
:105BE0000C0DA4EB1356352E4FDC45EAC323DB0A1C
:105BF00045EAC121C912B6F120050DDD63FA05F6AB
:105C0000EB4086EA0305124218BF45F00105C018B3
:105C100051F100010CD213E062FA06F5F240554052
:105C2000F3415A40B340F3405A408018594107D3DA
:105C300049085FEA30005FEA350528BF45F00105F5
:105C400001F58011420875F1004250F1000041EB6E
:105C500004514E0016F5001F70BC38BF704700207D
:105C6000090D090570471CEB410F10D252EA43069B
:105C70000BD0BCEB410F05D80C0DAB43661E342E88
:105C8000B6DD02E0AB438018594170BC704770BC70
:105C900070470000F0B540F2FF7581EA030C0CF08C
:105CA000004C15EA11541DBF15EA1357AC42AF4220
:105CB000E5E0BC41C1F31301C3F31303801A99411A
:105CC00043F4801304D2641E4000494180185941B6
:105CD000C90241EA5051B1FBF3F603FB1611A2FBD6
:105CE0000675D7EBC020A94102D2761E8018594113
:105CF000C90241EA5051B1FBF3FE03FB1E11A2FBA6
:105D00000E75D7EBC020A94103D2AEF1010E801869
:105D10005941890241EA9051760546EA8E2EB1FB3F
:105D2000F3F603FB1611A2FB0675D7EB8020A94101
:105D300002D2761E80185941C90241EA50514EEAFA
:105D4000060EB1FBF3F603FB1611A2FB0675D7EBAB
:105D5000C020A94102D2761E80185941C90241EAE9
:105D60005051B1FBF3F703FB1711A2FB0735D3EB3F
:105D7000C020A94167F100070CBF004247F00107AE
:105D800066F3D5274FEA1E31B80814F5806412DD9A
:105D9000BD0775F1004250EB0E5051EB045111F567
:105DA000801F5CBF41EA0C01F0BD4CF07F6141F007
:105DB000E0410020F0BDBD076D0840EA0E5041F4FF
:105DC0008011D4F10104B4F120060ADAC4F12006EE
:105DD0000200E04001FA06F3E1401843B2401543E7
:105DE0000EE0342C13DCC6F1200445EA40056D08B2
:105DF00020FA06F2154321FA06F0A1400D430021D6
:105E000075F1004250F1000051EB0C01F0BD002093
:105E10005FEA0C01F0BDCFB992185B41B3FA83F78A
:105E200004BFB2FA82F6BF190B3FB7F120062FBFAD
:105E300002FA06F3BB40C7F1200622FA06F638BF85
:105E40003343BA401CB1E419641E33E77F4231F09A
:105E50000041B1FA81F404BFB0FA80F6A4190B3CFA
:105E6000B4F120062FBF00FA06F1A140C4F12006CC
:105E700020FA06F638BF3143A0403C1B1AE7AC427B
:105E80001ABF05EA1357AF4212E050EA41061CBFA1
:105E900052EA4306BFE750EA4107304661461CBF5D
:105EA00041EA0551F0BD52EA430C08BFC143F0BDC1
:105EB00000204FF4001616EB410F98BF16EB430F6E
:105EC00008BF16EB410F24BFC14305E016EB430F9B
:105ED0000CBF61464CEA0551F0BD0000400D491869
:105EE00040EA81200CD2490DA1F58061491C40F0A7
:105EF000004005DBD1F11F0154BFC840C0177047F7
:105F000000207047014648B1B0FA80F18840C91CB2
:105F1000C1F58461090501EBD021400570470000FF
:105F2000B0B581EA030C0CF0004C40F2FF7515EAA5
:105F300011541DBF15EA1357AC42AF4239E0E419C2
:105F400023EA455343F48013C90241F0004141EA7A
:105F5000505EC7021100A7FB020200284FF00000AC
:105F6000EEFB01204FF00001E3FB072118BF42F0D8
:105F70000102401800214941E3FB0E01A4F58064B1
:105F80000F0302D252004041494154F101046CDD3B
:105F9000470872F1004250F1000051EB0451A1F5A5
:105FA00080115CBF41EA0C01B0BD4CEA05510020F4
:105FB000B0BD05EA1357AC4214BFAF4241E050EA0E
:105FC000410E1CBF52EA430E02E061460020B0BD04
:105FD00024423C441BD15FEA070EF6D0090302BFFE
:105FE00001460020AEF1140EB1FA81F7AEEB0704C2
:105FF00001FA07FE0C37C7F1200100FA07F7C84085
:106000004EEA000E23EA455343F48013A2E733F02F
:106010000043B3FA83F704BFB2FA82FE77440B3F22
:10602000E41BB7F1200E2FBF02FA0EF3BB40C7F1FD
:10603000200E22FA0EFE38BF43EA0E03BA40641C5B
:1060400082E750EA410E14BF52EA430E6FF000019E
:106050004FF4001717EB430F8ABF194617EB410F98
:10606000B5E74CEA05510020B0BDD4F10104B4F10C
:1060700020070FDAC4F12007520828BF42F00102BE
:1060800010FA07F501FA07F7E1BF2A43E040384369
:10609000E1400FE0352C98DCC7F1200452EA4002C1
:1060A00020FA07F218BF42F0010231FA07F0A140CE
:1060B0000A43002172F1004250F1000051EB0C0143
:1060C000B0BD80B5FFF78CFB006C02BDBBBBE1B17E
:1060D000B2F5803F80F07E80022A1ED98C46B1FB4B
:1060E000F2F102FB11C31B0443EA1043B3FBF2FCC1
:1060F00002FB1C3380B240EA0343B3FBF2F002FB25
:10610000103240EA0C4000237047022A05D9844629
:10611000B0FBF2F002FB10C270474AB105D100F0AB
:10612000010249085FEA30007047002200237047EF
:1061300000F09EB90B000200002100207047904241
:1061400071EB030CF6D3B3F5803F2FD2F0B5B3FA61
:1061500083F7B1FA81F4A7F10F0E3D1B5340CEF146
:10616000200602FA0EF2F3415340B5F10F0746D86C
:106170000F3C2C444140C4F12006A040F141414075
:10618000B1FBF3F603FB1611A2FB0645001BA94168
:1061900002D2761E8018594180EA010221FA0EF3DC
:1061A00062FA0EF200215A403046F0BD30B4B1FB25
:1061B000F3FC03FB1C11A2FB0C45001BA94103D2FD
:1061C000ACF1010C8018594130BC02460B466046C8
:1061D00000217047B2F1807F65D3F0B5B2FA82F743
:1061E000B1FA81F4C7F10F063D1B22FA06F307F15D
:1061F000110EF24120355A40B5F10F07B8D9414090
:10620000C4F12006A040F1414140B1FBF3FC03FB87
:106210001C11A2FB0C45001BA94103D2BCF1010CCF
:10622000801859410F2F12D30F3FC90341EA504143
:10623000B1FBF3F603FB1611A2FB0645D4EBC0300D
:10624000A94102D2761E8018594146EACC3C07B3D8
:106250004140C7F12006B840F1414140B1FBF3F69F
:1062600003FB1611A2FB0645001BA94102D2761EB4
:106270008018594180EA010221FA0EF3C7F1200487
:1062800062FA0EF20CFA07F05A402CFA04F130438D
:10629000F0BD80EA010221FA0EF3002162FA0EF24B
:1062A00060465A40F0BD8C46B1FBF2F102FB11C3CF
:1062B0001B0243EA1063B3FBF2FC02FB1C331B021C
:1062C0004CEA002043EA1063B3FBF2FC02FB1C33F0
:1062D0001B024CEA002043EA1063B3FBF2FC02FB12
:1062E0001C331B024CEA002043EA1063B3FBF2FCB0
:1062F00002FB1C324CEA002000237047012000F012
:10630000B9B80000841A71EB030604D26E40001B7A
:10631000B141121973414FF4001C1CEB410F34BF03
:106320007CEB430683E00C0DA4EB1356362E00F3F2
:106330007C80012E45EAC32341DC43EA525312BF5D
:10634000D20292025B08240545EAC12141EA50517C
:10635000D2EBC020994125D407D1B0FA80F610FACB
:1063600006F162D00020203608E0B1FA81F6B14093
:10637000C6F1200220FA02F21143B0404FEAF47451
:10638000B4EB465434F001064FEA74040AD8D6F54B
:106390000016760D04F00044F04061FA06F2504019
:1063A000F1404840C00A40EA415021F0004128BF76
:1063B0005FEA500550F1000044EBD12135E0DB0AE3
:1063C00045EAC121C90AB6F120050EDD42EA0242C2
:1063D000120CC5F1200603FA06F6EB4042EA060568
:1063E0006D42984161F100010DE062FA06F5F2405C
:1063F000554063FA06FC82EA0C02F3405A406D42B3
:10640000904161EB030111F4801F05D1641E620508
:1064100002D06D004041494121F48011430875F1DB
:10642000004350F1000041EB045170BC70471CEB7D
:10643000410F15D223F0004352EA43060BD04FEA36
:106440004C0CBCEB410F04D80C0D661E342EB7DD8E
:10645000EBE7801A994150EA410608BF0021E4E7C2
:1064600008BF1CEB430F28BF6FF00001DDE7000001
:106470007047000080B5AFF30080024A1100182079
:10648000ABBEFBE72600020001000800C0B20028F6
:106490000ED0022810D00DD3042811D00ED3062818
:1064A00012D00FD3082813D010D3092812D013E02C
:1064B000BE2012E0062010E07C200EE05E200CE002
:1064C000C6200AE0DA2008E0FA2006E00E2004E008
:1064D000FE2002E0DE2000E0002070472DE9FC41B4
:1064E00004000D006426022100226F463800FDF7EB
:1064F000BDFE00273800C0B202282CDAF6B20A200E
:1065000096FBF0F6E8462000C0B23100C9B290FB1D
:10651000F1F03900C9B208F80100E4B23000C0B2AD
:1065200094FBF0F100FB11443800C0B218F80000F1
:10653000FFF7AAFF3900C9B208F801003800C0B25D
:1065400018F80000DFF8301D3A00D2B252FA85F296
:1065500088547F1CCEE70020BDE8F6812DE9FC4180
:1065600004000D004FF47A76032100226F463800B4
:10657000FDF77CFE00273800C0B203282CDAB6B243
:106580000A2096FBF0F6E846200080B2310089B27E
:1065900090FBF1F03900C9B208F80100A4B2300054
:1065A00080B294FBF0F100FB11443800C0B218F83F
:1065B0000000FFF769FF3900C9B208F80100380090
:1065C000C0B218F80000DFF8B01C3A00D2B252FA9C
:1065D00085F288547F1CCEE70020BDE8F6812DE9C6
:1065E000FC4104000D00DFF8946C082100226F4686
:1065F0003800FDF73BFE00273800C0B2062824DA39
:106600000A20B6FBF0F6E846B4FBF6F03900C9B252
:1066100008F80100B4FBF6F006FB10443800C0B2E5
:1066200018F80000FFF730FF3900C9B208F8010080
:106630003800C0B218F80000DFF83C1C3A00D2B2B3
:1066400052FA85F288547F1CD6E70020BDE8F68117
:1066500010B401000800C0B200280FD0022833D0C7
:106660001FD3042856D042D3062800F07F8067D37A
:10667000082800F0A780C0F08F80AFE0DFF8000CA2
:10668000102280F8362000221300DBB2092B07DA33
:1066900000231400E4B2044484F82D30521CF3E7C4
:1066A000A4E0DFF8DC0B302280F835200022130054
:1066B000DBB2082B07DA00231400E4B2044484F8A8
:1066C0002D30521CF3E791E0DFF8B40B702280F814
:1066D000342000221300DBB2072B07DA002314005A
:1066E000E4B2044484F82D30521CF3E77EE0DFF876
:1066F000900BF02280F8332000221300DBB2062B2F
:1067000007DA00231400E4B2044484F82D30521C4C
:10671000F3E76BE0DFF8680BF02280F83320082203
:1067200080F8322000221300DBB2052B07DA0023A9
:106730001400E4B2044484F82D30521CF3E755E011
:10674000DFF83C0BF02280F833200C2280F8312057
:1067500000221300DBB2042B07DA00231400E4B29A
:10676000044484F82D30521CF3E73FE0DFF8100BAF
:10677000F02280F833200E2280F83020002213000F
:10678000DBB2032B07DA00231400E4B2044484F8DC
:106790002D30521CF3E729E0DFF8E40AF02280F8FC
:1067A00033200F2280F82F2000221300DBB2022BAF
:1067B00007DA00231400E4B2044484F82D30521C9C
:1067C000F3E713E0DFF8B80AF02280F833202F2235
:1067D00080F82E20002280F82D2007E0DFF8A00AA4
:1067E000F02280F833206F2280F82D20002010BC8A
:1067F000704710B401000800C0B200280BD0022876
:106800002BD019D304284AD038D306285FD051D3CF
:10681000072867D06FE0DFF8680A8022027601223D
:106820001300DBB2082B06DA00231400E4B20444A0
:106830002376521CF4E75EE0DFF8440AC022427679
:1068400002221300DBB2082B06DA00231400E4B2A4
:1068500004442376521CF4E74DE0DFF8240AE022DA
:10686000827603221300DBB2082B06DA0023140021
:10687000E4B204442376521CF4E73CE0DFF8000A5B
:10688000F022C27604221300DBB2082B06DA0023C2
:106890001400E4B204442376521CF4E72BE0DFF842
:1068A000E009F022C276012202770022C2778277C5
:1068B000427720E0DFF8C809F022C2760122427751
:1068C000427F02770022C277C27F827713E0DFF82F
:1068D000B009F022C2760122827742770277002245
:1068E000C27708E0DFF89809F022C2760122C27769
:1068F000827742770277002010BC704710B4010005
:106900000800C0B200280CD0022820D00AD30428E6
:1069100047D031D3062860D054D3082875D069D326
:106920007CE07BE0DFF858090122C271002282720C
:106930004272027201221300DBB2082B06DA002336
:106940001400E4B20444E371521CF4E766E0DFF89B
:10695000300903220272002282724272C271022244
:106960001300DBB2082B06DA00231400E4B204445F
:10697000E371521CF4E751E0DFF804090722427288
:10698000002282720272C27103221300DBB2082B52
:1069900006DA00231400E4B20444E371521CF4E765
:1069A0003CE0DFF8DC080F22827204221300DBB225
:1069B000082B06DA00231400E4B20444E371521CED
:1069C000F4E72BE0DFF8B8080F22C2718022C27210
:1069D000002242730273827320E0DFF8A4080F22C2
:1069E000C271C0220273027BC27200228273827B58
:1069F000427313E0DFF888080F22C271E0220273AD
:106A00004273C2720022827308E0DFF874080F221A
:106A1000C271F022C272027342738273002010BCF2
:106A2000704780B500F022FD00200100C9B238296E
:106A300007DABE21DFF840280300DBB2D154401C46
:106A4000F3E700200100C9B208290DDADFF8301899
:106A500000220300DBB20B44DA7100220300DBB238
:106A600019440A76401CEDE700200100C9B20A294A
:106A700009DA0021DFF808280300DBB21A4482F8A3
:106A80002D10401CF1E7DFF8F80704218170002188
:106A9000C170102180F82C10012180F82B100021EA
:106AA00080F83710012180F8261090F8261080F821
:106AB0002710102180F82410012101710179417102
:106AC00001214174817401700821C1730021017496
:106AD0000121C174C17C417501218175817DC17520
:106AE000082180F82010102180F82C100121C17499
:106AF00080F82B10417508214170042180F8221084
:106B0000022180F82110002002BD0020704780B5CE
:106B10000421DFF87007C078FFF7E0FC002002BD19
:106B200080B50F21DFF85C074069FFF758FD0020B2
:106B300002BD38B50020DFF84C17CA78062392FB57
:106B4000F3F400221000C0B20A2809DA0020DFF8AE
:106B500030371500EDB22B4483F82D00521CF1E7BD
:106B6000C878002803D02000C0B2FFF771FD0020D4
:106B700032BD00207047DFF80C078079012804D06F
:106B80002AD303281BD00DD326E0DFF8F406042116
:106B900080F82910002180F82A1090F82A1080F837
:106BA000281019E0DFF8D806032180F82A10002108
:106BB00080F8291090F8291080F828100CE0DFF8F0
:106BC000C006092180F82810002180F82A1090F8CA
:106BD0002A1080F82910FFE70020704780B51521A2
:106BE000DFF8A006C079FFF779FC002002BDDFF8CE
:106BF0009406007A002805D12020DFF8841681F859
:106C0000250004E00020DFF8781681F82500002038
:106C10007047DFF870068078002804D10020DFF884
:106C20006016C87003E00220DFF85416C870002018
:106C3000704780B50621DFF84C06807AFFF74EFCDE
:106C4000002002BD80B50B21DFF83806807BFFF7FE
:106C500045FC002002BD10B50020DFF82816897B16
:106C60000C2291FBF2F400210800C0B2082808DAD7
:106C70000020DFF80C260B00DBB21A44D071491C4F
:106C8000F2E72000C0B2FFF739FE002010BD80B54A
:106C90000821DFF8F0058089FFF760FC002002BDC5
:106CA000DFF8E4050088002804D10020DFF8D015C3
:106CB000887103E00420DFF8C81588710020704750
:106CC00038B50024DFF8BC5500F027FA2877287F74
:106CD0001F2802DA002004003AE0287F1F2805DB85
:106CE000287F292802DA0120040031E0287F2928A2
:106CF00005DB287F3D2802DA0220040028E0287FF7
:106D00003D2805DB287F422802DA032004001FE02B
:106D1000287F422805DB287F472802DA0420040068
:106D200016E0287F472805DB287F512802DA052056
:106D300004000DE0287F512805DB287F5B2802DA5C
:106D40000620040004E0287F5B2801DB0720040004
:106D50002000C0B2FFF74DFD002032BD80B5DFF846
:106D60002C25DFF82005817B03204143042091FB83
:106D7000F0F010700D211078FFF7B0FB002002BD7D
:106D80007CB500F02AF8DFF80845DFF80855DFF891
:106D90000865306880B20090D5E90023207800F0C3
:106DA000A7FA306880B20090D5E90223607800F03D
:106DB0009FFADFF8E864306880B20090D5E90423D8
:106DC000207800F095FA306880B20090D5E906236B
:106DD000607800F08DFA002076BDF0B4DFF8B4449E
:106DE000DFF89C54DFF89064B27D95F827000243E9
:106DF000D243D317707D95F826100843C043C117BE
:106E0000C043C943090241EA1061000270EA02026C
:106E100071EA0303B07B697D0843C043C117C043D7
:106E2000C943090441EA1041000402430B43707B4B
:106E3000297D0843C043C117C043C943090641EA3D
:106E40001021000602430B43F07DC043C117C0432D
:106E5000C9430100002002430B43707995F82B10C1
:106E60000843C043C117C043C94301020020024385
:106E70000B433079C043C117C043C943010400200C
:106E800002430B43F078C043C117C043C943010616
:106E9000002010431943C4E90001B278D243D3174C
:106EA0007078C043C117C043C943090241EA106169
:106EB000000270EA020271EA030395F8337095F854
:106EC0003400074395F83500074395F8360007432B
:106ED00068780743A8780743E8780743E87C0743C6
:106EE000FF433800F917C043C943090441EA104180
:106EF000000402430B4395F82D7095F82E000743CC
:106F000095F82C00074395F83200074395F83100B7
:106F1000074395F83000074395F82F000743FF43D8
:106F20003800F917C043C943090641EA1021000699
:106F300002430B4395F8237095F82500074395F815
:106F40002400074395F82A00074395F829000743D2
:106F500095F82800074395F837000743FF433800AA
:106F6000F917C043C9430100002010431943C4E985
:106F70000201327DE87D0243D243D317F07CE97FE2
:106F80000843C043C117C043C943090241EA106125
:106F9000000270EA020271EA0303B07CA97F084391
:106FA000C043C117C043C943090441EA104100046A
:106FB00002430B43707C697F0843C043C117C04341
:106FC000C943090641EA1021000602430B43307C05
:106FD000297F0843C043C117C043C94301000020B3
:106FE00002430B43F07BA97D0843C043C117C04354
:106FF000C9430102002002430B43F0796979084339
:10700000C043C117C043C9430104002002430B43DE
:10701000B07929790843C043C117C043C943010669
:10702000002010431943C4E90401F27A287C02438A
:10703000D243D317307B697C0843C043C117C04398
:10704000C943090241EA1061000270EA020271EAD2
:107050000303307AC043C117C043C943090441EA5E
:107060001041000402430B43707A29780843C0435F
:10707000C117C043C943090641EA10210006024373
:107080000B43B07AA97C0843C043C117C043C9432E
:107090000100002002430B43EE7A287B0643687B05
:1070A0000643A87B0643A87A0643687A0643287AF3
:1070B0000643E8790643F6433000F117C043C9435D
:1070C0000102002002430B43E87BA9790843C04337
:1070D000C117C043C9430104002002430B432E7E65
:1070E000687E0643A87E0643E87E064395F82000A6
:1070F000064395F82200064395F821000643F6431F
:107100003000F117C043C943010600201043194362
:10711000C4E906010020F0BC70475A49CA786420CF
:107120004243487E92FBF0F0C0B2704710B5FFF7C3
:1071300078FCFFF725FE00242000C0B208282ADAD8
:107140002000C0B2002803D10020FFF781FA13E02D
:107150002000C0B2012803D10220FFF779FA0BE02A
:107160002000C0B2022803D10420FFF771FA03E027
:10717000A01CC0B2FFF76CFA2000C0B2FFF739FBC9
:107180002000C0B2FFF7BAFBFFF7FAFD4B20FDF776
:1071900097FA641CD0E79620FDF792FA07242000A6
:1071A000C0B200282AD02000C0B2012803D100209C
:1071B000FFF74EFA13E02000C0B2022803D10220EC
:1071C000FFF746FA0BE02000C0B2032803D10420E9
:1071D000FFF73EFA03E0601CC0B2FFF739FA601E09
:1071E000C0B2FFF706FB601EC0B2FFF787FBFFF7D8
:1071F000C7FD4B20FDF764FA641ED0E7002010BDE8
:1072000080B501224FF480412548FDF771F9012036
:10721000FDF756FAFFF78AFF002002BD80B5002077
:107220001749887000201449C87088704870FFF7AB
:107230006CFCFFF7EEFCFFF76AFCFFF77AFCFFF748
:107240006FFCFFF796FCFFF796FCFFF7C7FCFFF714
:10725000CEFCFFF7EEFCFFF7F5FCFFF7FCFCFFF7B9
:1072600016FDFFF71DFDFFF72BFDFFF777FDFFF77D
:1072700087FD002002BD0000BC0F002040420F002F
:10728000940E00209C0F0020721100207811002025
:10729000D2420008D80F0020A4100020B81000200F
:1072A0000004024070B504006A4D2200D2B26A4860
:1072B000016889B22800FDF71BF900BF00BF674EC7
:1072C0000122316889B22800FDF712F900BF00BF22
:1072D0000022316889B22800FDF70AF900BF00BF1B
:1072E0000122316889B22800FDF702F9002070BD43
:1072F0002DE9F047070014001D00089E5FF0000A0A
:10730000DFF85C810122310089B24046FDF7F0F8D8
:107310000022310089B24046FDF7EAF80120FFF76C
:10732000C1FF0020FFF7BEFF0120FFF7BBFFBF003A
:107330005FF000094846C0B206280EDA3800C0B235
:10734000000603D50120FFF7ADFF02E00020FFF7A4
:10735000A9FF7F0019F10109ECE75FF0000A504630
:10736000C0B240280FDA2000C00703D50120FFF784
:1073700099FF02E00020FFF795FF6D085FEA3404F3
:107380001AF1010AEBE701223348016889B231485A
:10739000FDF7AEF80122310089B24046FDF7A8F8AA
:1073A0000020BDE8F0872DE9F84304005FF00009F4
:1073B0002B4D2C4E0122316889B22800FDF798F838
:1073C000294F0122396889B22800FDF791F800227F
:1073D000316889B22800FDF78BF80022396889B23C
:1073E0002800FDF785F80120FFF75CFF0020FFF77C
:1073F00059FF0020FFF756FF5FF000084046C0B27B
:1074000008280EDA2000C0B2000603D50120FFF7DD
:1074100049FF02E00020FFF745FF640018F1010872
:10742000ECE70020FFF73EFF01220B48016889B21C
:107430000848FDF75DF80122316889B22800FDF7A0
:1074400057F80122396889B22800FDF751F8002069
:10745000BDE8F28300080240E0100020CC100020BC
:1074600000040240A4100020B810002080B50020C5
:10747000FFF799FF0220FFF796FF0120FFF793FF28
:107480000320FFF790FF2920FFF78DFF002002BDAA
:1074900010B50400002C01D1012033E0A0690028C0
:1074A000FFD194F83900002805D1002084F8380075
:1074B000200000F023FD242084F839002068C068F3
:1074C00030F400502168C860200000F027FA2068DE
:1074D000006930F49040216808612068406930F00C
:1074E0002A00216848612068C06850F40050216873
:1074F000C8600020E063202084F83900202084F850
:107500003A00002010BD2DE9FC4705000C001600D4
:107510001F005FF0000A95F83900202860D1002C88
:1075200003D0300080B2002801D1012059E095F845
:107530003800012801D1022053E0012085F83800ED
:107540000020E863212085F83900FCF773FC8146B0
:10755000AE84EE84002085F83800E88C00282FD017
:10756000E88C401EE884A868B0F5805F18D10097C9
:107570004B4600228021280000F0DDF8002801D0D1
:1075800003202EE0A046B8F80000C005C00D296811
:1075900048602869002801D1A41CDEE7641CDCE7F0
:1075A00000974B4600228021280000F0C4F80028F4
:1075B00001D0032015E0207829684860641CCCE7DE
:1075C00000974B4600224021280000F0B4F8002824
:1075D00001D0032005E0202085F83900002000E0DC
:1075E0000220BDE8F6872DE9F843060030680768F9
:1075F0003068D0F80C803068D0F814900020002556
:1076000017F00F04002C08D1B80606D55FEA886091
:1076100003D5300000F02BF98BE0002C77D05FEA27
:10762000C97002D418F4907F71D017F00100C0B275
:10763000002806D05FEAC85003D5F06B50F0010077
:10764000F063780708D519F00100C0B2002803D014
:10765000F06B50F00200F063B80708D519F0010094
:10766000C0B2002803D0F06B50F00400F06338077C
:107670000BD55FEA886004D419F00100C0B200287D
:1076800003D0F06B50F00800F063F06B00283DD0A1
:10769000B80605D55FEA886002D5300000F0E7F84B
:1076A00030684069800910F001000500F06B0007A8
:1076B00001D4002D25D0300000F074F83068406906
:1076C00040061AD53068406930F0400031684861A2
:1076D000706B00280DD00FF2F100716B0865706BB4
:1076E000FCF735FC002811D0706B716B096D884771
:1076F0000CE0300000F003FC08E0300000F0FFFB7D
:1077000004E0300000F0FBFB0020F06311E03806DD
:1077100006D55FEA086003D5300000F061F808E0A4
:10772000780606D55FEA486003D5300000F08FF890
:10773000FFE7BDE8F1832DE9F04105000E0090461A
:107740001F00069C286800683040B04201D101202B
:1077500000E000204146C9B2884220D114F1010F57
:10776000F0D0002C04D0FCF765FBC01B8442E9D2AA
:107770002868C06830F4D0702968C86028684069FB
:107780004008400029684861202085F83900202001
:1077900085F83A00002085F83800032000E000203A
:1077A000BDE8F0810168C96831F490710268D16068
:1077B000016849694908490002685161202180F83F
:1077C0003A1070470000000038B50400A56B002097
:1077D000E8850020E884280000F091FB31BD00001E
:1077E000010091F8390021282FD18868B0F5805F19
:1077F00011D1086A02001088C005C00D0B685860DE
:107800000869002803D1086A801C086209E0086A38
:10781000401C086205E0086A431C0B6200780B6894
:107820005860C88C401EC88480B200280BD10868FC
:10783000C06830F080000B68D8600868C06850F0FD
:1078400040000B68D860002000E00220704710B5AF
:1078500004002068C06830F040002168C860202023
:1078600084F83900200000F04BFB002010BD38B533
:10787000040094F83A0022284ED1A068B0F5805F49
:1078800016D1A06A05002069002808D12068406848
:10789000C005C00D2880A06A801CA0621AE0206884
:1078A000406800F0FF002880A06A401CA06211E040
:1078B0002069002806D1A06A411CA162216849689C
:1078C000017007E0A06A411CA1622168496811F0BB
:1078D0007F010170E08D401EE08580B2002819D143
:1078E0002068C06830F020002168C8602068C06847
:1078F00030F480702168C86020684069400840000A
:1079000021684861202084F83A00200000F0F9FA4C
:10791000002002E0002000E0022032BD2DE9F14FFE
:1079200084B004980068016931F440510498C0683B
:107930000143049800680161049881680498006913
:1079400001430498406901430498C06901430291CE
:1079500004980068C168DFF8980501400298014367
:1079600004980068C16004980068416931F440716E
:107970000498806901430498006841610498C069D3
:10798000B0F5004F40F05B8104980068DFF86415A3
:10799000884206D004980068DFF85C15884240F001
:1079A000A78000F05DFB80465FF06409022400259B
:1079B0001926002742460023A6FB020106FB0311FD
:1079C00007FB021182468B46049840680021A4FB05
:1079D000002304FB013305FB003350465946FEF7F4
:1079E00075FB6421B0FBF1F0019042460023A6FB39
:1079F000020106FB031107FB021182468B46049825
:107A000040680021A4FB002304FB013305FB003385
:107A100050465946FEF75AFB009042460023A6FB0B
:107A2000020106FB031107FB021182468B460498F4
:107A300040680021A4FB002304FB013305FB003355
:107A400050465946FEF742FB6421B0FBF1F1009825
:107A500009FB1101C80032306421B0FBF1F0400095
:107A600010F4F870019910EB0110009042460023C9
:107A7000A6FB020106FB031107FB021182468B469F
:107A8000049840680021A4FB002304FB013305FB9C
:107A9000003350465946FEF719FB82464046002106
:107AA00002000B00A6FB020106FB031107FB0211FB
:107AB000049A5268002316001F00A4FB062304FB4F
:107AC000073305FB0633FEF701FB6421B0FBF1F041
:107AD00009FB10A95FEAC90032306421B0FBF1F163
:107AE00011F0070100980918049800688160FCE112
:107AF00000F0ABFA80465FF06409022400251926E5
:107B0000002742460023A6FB020106FB031107FBE8
:107B1000021182468B46049840680021A4FB002392
:107B200004FB013305FB003350465946FEF7CEFAFD
:107B30006421B0FBF1F0019042460023A6FB020154
:107B400006FB031107FB021182468B46049840682E
:107B50000021A4FB002304FB013305FB0033504646
:107B60005946FEF7B3FA009042460023A6FB0201F5
:107B700006FB031107FB021182468B4604984068FE
:107B80000021A4FB002304FB013305FB0033504616
:107B90005946FEF79BFA6421B0FBF1F1009809FB0E
:107BA0001101C80032306421B0FBF1F0400010F444
:107BB000F870019910EB0110009042460023A6FBDB
:107BC000020106FB031107FB021182468B46049853
:107BD00040680021A4FB002304FB013305FB0033B4
:107BE00050465946FEF772FA82464046002102008E
:107BF0000B00A6FB020106FB031107FB0211049A0E
:107C00005268002316001F00A4FB062304FB073361
:107C100005FB0633FEF75AFA6421B0FBF1F009FBCD
:107C200010A95FEAC90032306421B0FBF1F111F014
:107C300007010098091804980068816055E10498CC
:107C40000068AC49884205D004980068AA49884277
:107C500040F0A68000F004FA8046042400255FF07E
:107C600064091926002742460023A6FB020106FBF1
:107C7000031107FB021182468B46049840680021DD
:107C8000A4FB002304FB013305FB00335046594697
:107C9000FEF71CFA6421B0FBF1F00190424600238C
:107CA000A6FB020106FB031107FB021182468B466D
:107CB000049840680021A4FB002304FB013305FB6A
:107CC000003350465946FEF701FA00904246002321
:107CD000A6FB020106FB031107FB021182468B463D
:107CE000049840680021A4FB002304FB013305FB3A
:107CF000003350465946FEF7E9F96421B0FBF1F133
:107D0000009809FB1101080132306421B0FBF1F049
:107D100010F0F000019910EB011000904246002392
:107D2000A6FB020106FB031107FB021182468B46EC
:107D3000049840680021A4FB002304FB013305FBE9
:107D4000003350465946FEF7C1F9824640460021AD
:107D500002000B00A6FB020106FB031107FB021148
:107D6000049A5268002316001F00A4FB062304FB9C
:107D7000073305FB0633FEF7A9F96421B0FBF1F0E8
:107D800009FB10A95FEA091032306421B0FBF1F160
:107D900011F00F0100980918049800688160A4E0B0
:107DA00000F053F98046042400255FF06409192689
:107DB000002742460023A6FB020106FB031107FB36
:107DC000021182468B46049840680021A4FB0023E0
:107DD00004FB013305FB003350465946FEF776F9A4
:107DE0006421B0FBF1F0019042460023A6FB0201A2
:107DF00006FB031107FB021182468B46049840687C
:107E00000021A4FB002304FB013305FB0033504693
:107E10005946FEF75BF9009042460023A6FB02019B
:107E200006FB031107FB021182468B46049840684B
:107E30000021A4FB002304FB013305FB0033504663
:107E40005946FEF743F96421B0FBF1F1009809FBB4
:107E50001101080132306421B0FBF1F010F0F000A4
:107E6000019910EB0110009042460023A6FB02018D
:107E700006FB031107FB021182468B4604984068FB
:107E80000021A4FB002304FB013305FB0033504613
:107E90005946FEF71BF982464046002102000B00BE
:107EA000A6FB020106FB031107FB0211049A5268AC
:107EB000002316001F00A4FB062304FB073305FB69
:107EC0000633FEF703F96421B0FBF1F009FB10A9BA
:107ED0005FEA091032306421B0FBF1F111F00F01BB
:107EE0000098091804980068816005B0BDE8F08F1B
:107EF000F369FFFF00100140001401407047704714
:107F0000704770472DE9F04104000D00002C01D1AD
:107F1000012095E0584F386810F00F00A84207D2B2
:107F20003D70386810F00F00A84201D0012087E0B2
:107F30002078800716D52078400704D54F4801687F
:107F400051F4E05101602078000704D54B480168E6
:107F500051F46041016049490A6832F0F002A068BA
:107F600002430A602078C00738D56068012805D12F
:107F700043480068800313D4012061E06068022850
:107F800002D06068032805D13D480068800107D40D
:107F9000012055E03A480068800701D401204FE0F5
:107FA000DFF8D880D8F8001089088900606801439C
:107FB000C8F80010FBF73EFF0600D8F8000010F0EC
:107FC0000C006168B0EB810F08D0FBF733FF801B1A
:107FD00041F289318842F0D3032031E0386810F053
:107FE0000F00854207D23D70386810F00F00A8429C
:107FF00001D0012024E02078400706D51F490A68F7
:1080000032F4E052E06802430A602078000707D5A6
:108010001A48016831F46041226951EAC2010160E5
:1080200000F08DFA1749154A1268C2F30312895CF1
:10803000C840154908601548006800F0FBFC0020A6
:10804000BDE8F08110480068704780B5FFF7FAFF7F
:108050000F490A4A1268C2F38222895CC84002BDF5
:1080600080B5FFF7EFFF0A49044A1268C2F34232B3
:10807000895CC84002BD0000003C02400838024054
:108080000038024018D10008040000200000002041
:1080900080D100082DE9F04F85B005005FF0000B9E
:1080A0000024002001900020009000260020049071
:1080B0000020039000275FF000082878C0070CD547
:1080C000DFF878150A6832F0C062A86B02430A60D4
:1080D000A86B002801D101200700287880070CD563
:1080E000DFF858150A6832F0C052E86B02430A60A4
:1080F000E86B002801D1012007002878400712D53D
:10810000DFF838150A6832F44012286B02430A601F
:10811000286BB0F5801F01D101200700286B0028D3
:1081200001D1012080462878000712D5DFF80C1510
:108130000A6832F44002686B02430A60686BB0F56B
:10814000800F01D101200700686B002801D10120B8
:1081500080462878800673D500200290DFF8E0047E
:10816000016851F080510160006810F08050029069
:108170000298DFF8D094D9F8000050F48070C9F864
:108180000000FBF757FE8346D9F80000C00507D46E
:10819000FBF750FEB0EB0B000328F5D30320CBE137
:1081A000DFF8A494D9F8000010F440700400002C0B
:1081B00026D0286C10F44070844221D0D9F80000F9
:1081C00030F440700400DFF88404012101600021D4
:1081D0000160C9F80040D9F80000C00710D5FBF7CE
:1081E00029FE8346D9F80000800709D4FBF722FE58
:1081F000B0EB0B0041F289318842F3D303209BE1BD
:10820000286C10F44070B0F5407F0BD1DFF84014BB
:108210000A6832F4F8122B6CDFF8380403401A4372
:108220000A6005E0DFF82804016831F4F811016004
:10823000D9F80000296C0905090D0843C9F80000A8
:108240002878C00604D595F85800DFF80C140860AB
:108250002878000607D5DFF804140A6832F44002D3
:10826000E86C02430A602878400607D5DFF8EC1373
:108270000A6832F08062A86C02430A602868C00570
:108280000DD5DFF8D8130A6832F00062686D02433A
:108290000A60686DB0F1006F01D101208046286846
:1082A000800507D5DFF8B4130A6832F08052686C95
:1082B00002430A60286840050DD5DFF8A0130A685C
:1082C00032F00052286D02430A60286DB0F1005F61
:1082D00001D101200700012F04D02868B0F5006FFC
:1082E00040F0B980DFF878930020C9F80000FBF770
:1082F000A1FD0290DFF86CA3DAF80000000107D5B9
:10830000FBF798FD0299401A0328F3D3032013E1E9
:108310002878C00702D5A86B002805D028788007E8
:108320001ED5E86B00281BD1DFF83C030168C1F3C0
:108330000141491C490001910168C1F303610091A9
:108340006968AA6851EA8211019A5208521E51EADC
:108350000241009A51EA02616A6951EA02710160C0
:108360002878400703D5286BB0F5801F06D0287801
:10837000000727D5686BB0F5800F23D1DFF8E8023E
:108380000168C1F30141491C490001910168C1F331
:1083900002710E006968AA6851EA8211019A5208B6
:1083A000521E51EA02412A6951EA026151EA0671FC
:1083B0000160DFF88802016849094901AA6A521E72
:1083C00011430160286840051ED5286DB0F1005F9B
:1083D0001AD1DFF894020168C1F30141491C490038
:1083E00000910168C1F302710E006968AA6851EA40
:1083F0008211EA685208521E51EA0241009A51EA7B
:10840000026151EA067101602868000511D56868AB
:10841000A96850EA8110E9684908491E50EA0140FC
:10842000296950EA0160696950EA0170DFF8381281
:1084300008600120C9F80000FBF7FCFC8346DAF86D
:108440000000000107D4FBF7F5FCB0EB0B0003289C
:10845000F5D3032070E0B8F1010F6CD1DFF80CA266
:108460000020CAF80000FBF7E5FC0290DFF8F49169
:10847000D9F80000800007D5FBF7DCFC0299401A10
:108480000328F3D3032057E02878400702D5286B50
:10849000002805D02878000721D5686B00281ED158
:1084A000DFF8CC010168C1F30141491C4900049186
:1084B000A969EA6951EA8211049A5208521E51EAE6
:1084C00002416A6A51EA02610160DFF870010168E5
:1084D00031F4F851EA6A521E51EA0221016028681B
:1084E000C00516D5686DB0F1006F12D1DFF88001BC
:1084F0000168C1F303610391A969EA6951EA821134
:108500002A6A5208521E51EA0241039A51EA026154
:1085100001600120CAF80000FBF78CFC8346D9F803
:108520000000800007D4FBF785FCB0EB0B000328AC
:10853000F5D3032000E0002005B0BDE8F08F2DE961
:10854000F04300240025002600275FF00008404883
:10855000006810F00C00002806D0042807D0082876
:1085600008D00C2836D063E0DFF89C0462E0DFF826
:108570009C045FE0DFF88C94D9F8000010F03F0015
:108580000400D9F8000040020DD5D9F80000C0F36E
:108590008810DFF87814A1FB000122000023FDF70A
:1085A00095FD05000CE0D9F80000C0F38810DFF855
:1085B0005814A1FB000122000023FDF787FD0500F0
:1085C000D9F80000C0F30140401C40000600B5FB94
:1085D000F6F02FE0DFF82C94D9F8000010F03F00FF
:1085E0000400D9F8000040020DD5D9F80000C0F30E
:1085F0008810DFF81814A1FB000122000023FDF70A
:1086000065FD05000CE0D9F80000C0F38810DFF824
:10861000F813A1FB000122000023FDF757FD050020
:10862000D9F80000C0F302700700B5FBF7F001E0D5
:10863000DFF8D403BDE8F083000000008C3802406E
:10864000403802400070004070380240400E4742FF
:1086500008380240FFFCFF0FE01147429438024007
:1086600068004742003802408438024070004742A8
:10867000883802402DE9FC41040000252078C0071D
:1086800069D5DFF89803016811F00C01042913D0B3
:10869000016811F00C01082904D1DFF8681309689A
:1086A000490209D4006810F00C000C280ED1DFF844
:1086B00054030068400209D5DFF8580300688003BE
:1086C00049D56068002846D1012099E16068B0F57D
:1086D000803F06D1DFF83C03016851F4803101602E
:1086E00018E06068B0F5A02F0AD1DFF82803016810
:1086F00051F480210160016851F48031016009E08A
:10870000DFF81003016831F480310160016831F451
:1087100080210160606800280ED0FBF78BFB05000C
:10872000DFF8F0020068800315D4FBF783FB401BE1
:108730006528F5D3032063E1FBF77CFB0500DFF838
:10874000D4020068800306D5FBF774FB401B652844
:10875000F5D3032054E1207880075AD5DFF8BC0216
:10876000016811F00C0F13D0016811F00C010829F9
:1087700004D1DFF890120968490209D5006810F0A9
:108780000C000C2816D1DFF87C020068400211D4DE
:10879000DFF880020168890704D5E168012901D06A
:1087A00001202DE1016831F0F801226951EAC2018E
:1087B00001602EE0E06800281AD00120DFF8601286
:1087C0000860FBF737FB0500DFF8480201688907FE
:1087D00006D4FBF72FFB401B0328F5D303200FE142
:1087E000016831F0F801226951EAC201016010E02C
:1087F00000208B490860FBF71DFB050085480068D9
:10880000800706D5FBF716FB401B0328F6D3032091
:10881000F6E02078000724D56069002810D00120F8
:1088200080490860FBF706FB05007B48006880076D
:1088300017D4FBF7FFFA401B0328F6D30320DFE031
:10884000002078490860FBF7F5FA050072480068D7
:10885000800706D5FBF7EEFA401B0328F6D303206A
:10886000CEE02078400775D500266F4F3868C000ED
:108870000CD400200090386850F080503860386880
:1088800010F080500090009801200600DFF89C81D5
:10889000D8F80000C00513D4D8F8000050F4807058
:1088A000C8F80000FBF7C6FA0500D8F80000C005BC
:1088B00006D4FBF7BFFA401B0328F6D303209FE042
:1088C000A068012805D15248016851F001010160FA
:1088D00015E0A068052809D14D48016851F0040150
:1088E0000160016851F00101016008E04848016839
:1088F000490849000160016831F004010160A06885
:1089000000280FD0FBF796FA050041480068800761
:1089100018D4FBF78FFA401B41F289318842F4D317
:1089200003206DE0FBF786FA0500394800688007F0
:1089300008D5FBF77FFA401B41F289318842F4D316
:1089400003205DE03000C0B2012803D1386830F068
:1089500080503860A069002851D03048006810F07D
:108960000C00082849D0A069022835D1304E0020DB
:108970003060FBF75FFA0700DFF89880D8F8000056
:10898000800106D5FBF756FAC01B0328F4D3032059
:1089900036E0E169206A0143606A51EA8011A06A09
:1089A0004008401E51EA0041E06A51EA0061206B34
:1089B00051EA00711348016001203060FBF73AFA78
:1089C0000500D8F80000800119D4FBF733FA401BEA
:1089D0000328F6D3032013E0002015490860FBF7B5
:1089E00029FA05000B480068800108D5FBF722FA38
:1089F000401B0328F6D3032002E0012000E0002002
:108A0000BDE8F681043802400024F40000127A0028
:108A10007038024000380240743802400838024082
:108A200000004742800E474240380240007000403C
:108A30006000474210B504004FF47A700D49097880
:108A4000B0FBF1F00C490968B1FBF0F0FBF722FE36
:108A5000002801D001200CE0102C09D200222100B6
:108A60005FF0FF30FBF7FAFD04480460002000E0EF
:108A7000012010BD8E000020040000200000002016
:108A8000DFF8AC07DFF8AC170860DFF8AC07DFF8F9
:108A9000AC170860DFF8A807DFF8A8170860DFF850
:108AA000A807DFF8A8170860DFF8A407016849697C
:108AB00051F00101026851610168C96851F020015B
:108AC0000068C160DFF88C070168496951F0010155
:108AD000026851610168C96851F020010068C160F5
:108AE00070472DE9F84396240025DFF8486737687A
:108AF0002A0021003800FBF7B9FB00203168C1F8DB
:108B0000980000203168C1F89C0096260027DFF805
:108B10002C87D8F800903A0031004846FBF7A6FBB6
:108B20000020D8F80010C1F898000020D8F80010F4
:108B3000C1F89C00BDE8F1832DE9F843102400251D
:108B4000DFF8006737682A0021003800FBF78EFB4A
:108B50000020316808610020316848611026002734
:108B6000DFF8E886D8F800903A0031004846FBF775
:108B70007DFB0020D8F8001008610020D8F8001014
:108B80004861BDE8F18310B4D1F898305B1C96249D
:108B9000B3FBF4F204FB1232D1F89C309A4204D0B9
:108BA000D1F89830C854C1F8982010BC70470A69B1
:108BB000521C12F00F024B699A4202D00B69C85442
:108BC0000A6170472DE9F04104002068DFF888163B
:108BD000884241D1206805682068C668A80615D576
:108BE000B00613D52068006820684768DFF844069F
:108BF00001683800C0B2FFF7C6FF3800C0B20A28CB
:108C000003D10120DFF85416087072E0280670D5F1
:108C100030066ED5DFF82006D0F89810D0F89C20EA
:108C2000914206D12068C06830F080002168C86099
:108C300011E0D0F89C10415CD0F89C20521C962387
:108C4000B2FBF3F703FB1722C0F89C2020680068F2
:108C5000C9B2206841604CE02068DFF80416884201
:108C600047D1206805682068C668A80623D5B006E5
:108C700021D52068006820684768DFF8E88598F803
:108C80000000401C88F80000DFF8B80501683800D3
:108C9000C0B2FFF78CFF3800C0B2232803D098F889
:108CA0000000102806D1002088F800000120DFF81D
:108CB000B81508701DE028061BD5300619D5DFF859
:108CC000880501694269914206D12068C06830F088
:108CD00080002168C8600BE04169415C4269521C18
:108CE00012F00F02426120680068C9B2206841603A
:108CF000FFE7BDE8F0812DE9F84FDFF8348572A772
:108D00003900404600F0DCFA00F0A0FB0500002628
:108D10002800C0B20A2808D00B285FD00E2800F027
:108D200084800F2800F0BD80C9E03900002000F0E9
:108D3000C7FADFF8389500F089FB89F8020039009E
:108D4000002000F0BDFA040010220021200000F0F5
:108D5000C9FB89F801003900002000F0B1FA00F0E9
:108D600075FB89F80300DFF8088500224946404674
:108D700000F0DCFC002805D04FF4BB71DFF8F404F0
:108D8000FBF7F1FB3900002000F09AFADFF8E894D5
:108D900000F05CFB89F800003900002000F090FA38
:108DA00000F054FB89F801003900002000F088FA37
:108DB00000F04CFB89F8020000224946404600F0D2
:108DC000F9FB002805D040F27D11DFF8A804FBF77D
:108DD000CAFB0020DFF8A414087070E00120DFF85F
:108DE000A01408703900002000F06AFADFF89484BB
:108DF00000F02CFBA8F80C003900002000F060FA0D
:108E000000F024FB88F80E003900002000F058FA2A
:108E100000F01CFB88F80A003900002000F050FA2E
:108E200000F014FB88F8190049E05FF000084046A4
:108E3000C0B2042834DA3900002000F041FA00F012
:108E400005FB06003900002000F03AFA01005FF04F
:108E50000C09DFF834A43000C0B209FB00F0504424
:108E600000F064FD3900002000F02AFA3100C9B298
:108E700009FB01F10AEB010B00F0E8FAABF808007E
:108E80003900002000F01CFA3100C9B209FB01F9D9
:108E9000D14400F0DBFA89F80A0018F10108C6E7AE
:108EA0000DE018F1030000F0D1FA012804D10120EF
:108EB000DFF8D813087001E000F054FDFFE7FFF77A
:108EC00010FEBDE8F18F00002C0000002DE9F04FEE
:108ED0008DB0002600208DF80C0005A8DFF8B01337
:108EE0001022FAF7AFFB5FF00F08DFF8547300971A
:108EF00009AC424600992000FAF794FB5FF0100994
:108F00005FF0000ADFF88C43A346524649465846B4
:108F1000FBF7ACF900200100C9B2022909DA01000F
:108F2000C9B2795C0DF10E020300DBB2D154401CD2
:108F3000F1E70A2200210DF10E0000F0D3FA8DF8BE
:108F40000C000F2205A909A800F090FD002802D10D
:108F500000F01FFE5AE19DF80C000A280DD0C0F069
:108F600055810C287DD043D30E2800F00281C0F03B
:108F7000A1800F2800F0088148E1B81C00F066FAD3
:108F800001281DD10120C44908700020C349087080
:108F90000020C34908700120C249087001239EA225
:108FA000C149200000F04EFEC04F2000FCF782FCBB
:108FB000388064233A882100A648FEF7A4FA10E01E
:108FC000002395A2B849200000F03CFEB74F2000D6
:108FD000FCF770FC388064233A8821009D48FEF736
:108FE00092FA1E2302228DA19948FEF78CFA0DE118
:108FF000A9480078012833D1B81C00F027FA401E98
:1090000006000C20A0493200D2B242430A44927AB0
:1090100002923200D2B242430A44128901923200D3
:10902000D2B200FB02F0084400903300DBB25B1CBC
:109030007BA29F49200000F005FE9C4F2000FCF71A
:1090400039FC388064233A8821008248FEF75BFAB5
:1090500010275FF00008424639002000FBF706F9B0
:10906000D4E0B81C00F0F2F905008B480178012922
:1090700006D12900C9B2012902D100F08AFD18E009
:109080000078012815D12800C0B2022811D17D48EE
:10909000837864A28449200000F0D4FD834F20002F
:1090A000FCF708FC388064233A8821008148FEF7E9
:1090B0002AFAABE0B81C00F0C9F9B0F101080021B0
:1090C0000800C0B208280FDA6F4A4346DBB20C2012
:1090D000434302EB03000A00D2B20B00DBB23B4475
:1090E000DB788354491CEBE70C26DFF89C91404663
:1090F000C0B2704348440021C17100200100C9B2D0
:10910000042909DA0100C9B23944897A04AA0300A2
:10911000DBB2D154401CF1E74046C0B2704309EBCA
:10912000000A04A800F092F9AAF808004046C0B26C
:1091300006FB00F64E4417F10E0000F087F9B072FE
:109140004646761C3300DBB237A25749200000F0B8
:1091500079FD564F2000FCF7ADFB388064233A8838
:1091600021003C48FEF7CFF953480178491C0170B3
:109170004CE0B81C00F06AF9012803D101204F49E6
:10918000087000E000BF41E0BF1C380000F05EF94D
:1091900001281CD101204249087000203E49087076
:1091A000012040490870012320A23F49200000F01F
:1091B00049FDDFF8F8802000FCF77CFBA8F80000F0
:1091C0006423B8F8002021002248FEF79CF93800FB
:1091D00000F03CF9022812D13148037813A2324939
:1091E000200000F02FFD314F2000FCF763FB38809A
:1091F00064233A8821001748FEF785F905E000202E
:1092000027490870012027490870FFE7FFF794FC01
:109210000DB0BDE8F08F00003130000031340000A7
:1092200031310000313200003133000031350000AF
:109230004C09002050110020EC090020541100209E
:1092400034100020581100204C1000205C11002028
:10925000D40D0020140E00200010014081110020C8
:10926000004400407F110020821100206011002086
:10927000F80F002000CB0008081100208A00002011
:10928000890000209C0F0020FC0E00208B11002084
:10929000E8D000081C1100207B1100207C11002068
:1092A0007A1100207D11002060D100087411002087
:1092B000F8D00008540E0020801100207E110020FC
:1092C00038B504000D460BD02946204600F0DAFCE4
:1092D0000444207848B90C4800210160002032BDC8
:1092E00009490C68002CEFD132BD2946204600F018
:1092F000DAFC2118087810B1002201F8012B02488D
:109300000160204632BD00BF681100202DE9F84FF2
:1093100084B00E4617460BB100221A600446A046E0
:1093200001E008F1010898F8000000F0CDFC0028E9
:10933000F7D198F800002D2816BF2B2818F8015BEC
:109340002B25002F019603D4012F01D0252F03DBFD
:10935000002E55D0346053E0002F0CDD102F04BFD9
:1093600098F80000302802BF98F8010040F0200073
:10937000782811D10CE098F80000302818BF0A278F
:109380000AD198F8010040F02000782803D1102776
:1093900008F1020800E00827CDF80C8001E008F190
:1093A000010898F800003028F9D0064E7E441436A3
:1093B0004FF0000906F12800CDF80880CA468DF864
:1093C00000000BE0343900009DF80010401ACA4636
:1093D0005FFA80FB07FB09B908F1010898F8000063
:1093E00000F07CFC01463A4606F12800FCF77EFAC4
:1093F0000028E9D10399414504D1019800B10460E6
:10940000002020E00299F05DA8EB0101081A002875
:1094100010D406DCB9EB0B0103D3B1FBF7F05045D8
:1094200008D0AFF30080049808B1012101604FF02B
:10943000FF3903E02D2D08BFC9F10009019808B1DB
:10944000C0F80080484605B0BDE8F08FFFE7002374
:109450000A2200215AE700002DE9F84381460D0059
:1094600090461C4608BF6D464F4600E07F1C38788A
:1094700000F02AFC0028F9D13E782D2E18BF2B2EA3
:1094800005D117F8010F00F01FFC50B900E02B26A2
:109490002346424629463846FFF738FF29688F425F
:1094A00004D1C5F800900020BDE8F2832B2E04D132
:1094B000B0F1004F06D2BDE8F2832D2EFBD1B0F102
:1094C000004F0CD9AFF300800CB1012020602D2E8D
:1094D00014BF6FF000404FF00040BDE8F2834042FF
:1094E000BDE8F2830023B7E710B50400002C01D1DA
:1094F00001205EE0607F002804D10020207720005A
:1095000000F013FA02206077CA20216848625320D5
:1095100021684862200000F0D2F9002806D0FF2020
:109520002168486204206077012042E02068816859
:10953000DFF8480301402068816020688168626824
:109540002069024360690243114320688160E0683A
:109550002168086120680069A16850EA014021681B
:1095600008612068C06830F080002168C860206809
:10957000806880060BD4200000F086F9002806D011
:10958000FF202168486204206077012011E02068F4
:10959000006C30F48020216808642068016CA069A8
:1095A000014320680164FF20216848620120607740
:1095B000002010BD2DE9F84305000E0014005FF0F7
:1095C0000008287F012801D1022079E001202877B6
:1095D00002206877002C1CD128688068400601D4DE
:1095E0000020F070307800F087F98146707800F044
:1095F00083F90700B07800F07FF95FFA89F9FFB2CC
:109600003F0257EA0947C0B20743F07857EA0047DC
:109610000FE028688068400601D40020F0703078A0
:1096200077783F0257EA0047B0780743F07857EA67
:109630000047CA20296848625320296848622800E8
:1096400000F03DF9002808D0FF2029684862042076
:10965000687700202877012032E0DFF824023840C4
:10966000296808602868806830F48020296888604C
:1096700028688168F2683069024311432868816074
:109680002868C06830F080002968C8602868806851
:1096900080060DD4280000F0F7F8002808D0FF203D
:1096A000296848620420687700202877012007E0B5
:1096B000FF20296848620120687700202877002071
:1096C000BDE8F283F8B505000E00140000212868FB
:1096D000806A7060286800694004400CB0602868A7
:1096E0000768DFF89C0107403800000C10F03F00CD
:1096F00030703800000A10F07F00707017F07F00A3
:10970000B0703800000C10F04000F070002C0BD14D
:10971000307800F0FDF83070707800F0F9F8707073
:10972000B07800F0F5F8B0700020F2BD2DE9F843F4
:1097300005000E0014000027287F012801D1022017
:1097400070E00120287702206877002C07D170781C
:10975000C00604D5707810F0EF000A307070002C4D
:1097600019D1F07800F0C8F88146707800F0C4F89C
:109770008046B07800F0C0F85FFA89F95FFA88F89F
:109780005FEA082858EA0948C0B250EA0808307869
:1097900058EA40380CE0F07896F801805FEA082833
:1097A00058EA0048B07850EA0808307858EA40385B
:1097B000CA2029684862532029684862280000F0BE
:1097C0007EF8002808D0FF202968486204206877C6
:1097D00000202877012025E0DFF8A80010EA080023
:1097E000296848602868C06830F080002968C8602F
:1097F0002868806880060DD4280000F045F800280D
:1098000008D0FF2029684862042068770020287764
:10981000012007E0FF2029684862012068770020C6
:1098200028770020BDE8F283F8B505000E0014008B
:10983000002128684768DFF84C0007403800000C1A
:10984000F0703800000A10F01F00707017F03F0031
:10985000B0703800400B10F007003070002C0BD1B6
:10986000F07800F055F8F070707800F051F87070F2
:10987000B07800F04DF8B0700020F2BDBFFF8FFF50
:109880007F7F7F003FFFFF0070B504000025206848
:10989000C06830F0A0002168C860FAF7CBFA060073
:1098A0002068C068800608D4FAF7C4FA801B40F22A
:1098B000E9318842F4D3032000E0002070BD38B5C0
:1098C000040000252068C068400613D45FF0FF3014
:1098D0002168C860FAF7AEFA05002068C068400643
:1098E00008D4FAF7A7FA401B40F2E9318842F4D3D2
:1098F000032000E0002032BD00210200D2B20A2A7B
:1099000002D3491C0A38F8E750EA0110C0B2704788
:1099100000220300DBB21B09DBB20A214B43C0B2B9
:1099200010F00F00C018C0B2704770475FEA000C1B
:1099300011F8012B00F8012B12B111F8012BF9E7F6
:10994000604670471CB5684645490322F9F76AFE30
:1099500001246423220092B269464248FDF7D3FDF8
:10996000002016BD2DE9F04FA5B064200390002023
:1099700002900CAC029A03992000FAF777FC34A10C
:109980000CA800F0B5F91E2001900020009004AC56
:10999000009A01992000FAF769FC0FF2B809DFF884
:1099A000C880D8F80020494604A800F04BF904A963
:1099B0000CA800F09DF91E24002504AE2A00210009
:1099C0003000FAF753FCD8F80C20494604A800F000
:1099D00039F904A90CA800F08BF91E2600270DF117
:1099E000100A3A0031005046FAF740FCD8F8182027
:1099F000494604A800F026F904A90CA800F078F95B
:109A00005FF01E095FF0000A0DF1100B5246494647
:109A10005846FAF72BFCD8F824200FA104A800F030
:109A200011F904A90CA800F063F90CA100F060F989
:109A30000CA8FBF73FFF8046C823424692B20CA910
:109A40000848FDF760FD002025B0BDE8F08F00005C
:109A500031352C0025642C00256400000A0000002C
:109A600088D10008D40D0020CC0E00200300002077
:109A700013F0030F09D0521E22BF13F8010B11F887
:109A800001CBB0EB0C00F3D0704711F0030F14D1F1
:109A9000121F22BF53F8040B51F804CB6045F7D0D6
:109AA000121D0AD200BA9CFA8CFCB0EB0C0038BF35
:109AB0006FF0000088BF01207047521E22BF13F8CC
:109AC000010B11F801CBB0EB0C00F6D0521C08BF13
:109AD00010467047E0B5584901200861C920486028
:109AE000042088600020C8605E208DF8000001AB73
:109AF0006A46524800F086FA002803D03A215048BE
:109B0000FAF731FD00200EBD1FB504005F208DF86F
:109B1000000020008DF801002000000A8DF80200EE
:109B20002000000C8DF803002000000E8DF80400CA
:109B3000414905200861C920486004208860002050
:109B4000C86002AB6A463D4800F05CFA002803D0CA
:109B500054213B48FAF707FD002004B010BDE0B5E2
:109B6000354901200861C920486009208DF80000AE
:109B7000042088600020C86001AB6A462F4800F0CE
:109B800041FA002803D06A212D48FAF7ECFC0020A6
:109B90000EBDE0B512208DF80000274901200861B4
:109BA000CB204860042088600020C86001AB6A4672
:109BB000224800F027FA002803D0C6212048FAF7EF
:109BC000D2FC00200EBD1CB5040014208DF800004E
:109BD0008DF80140184902200861CB20486004201C
:109BE00088600020C86001AB6A46144800F00AFA99
:109BF000002803D0F3211248FAF7B5FC002016BD67
:109C0000E0B515208DF800000B4901200861CB203C
:109C10004860042088600020C86001AB6A4607489D
:109C200000F0F0F9002804D040F209110448FAF7D6
:109C30009AFC00200EBD0000641000202C0F0020B4
:109C400058CC00080CB430B583B00A4606A902917E
:109C5000044600250194009502AB01A90848784408
:109C60001E30FAF743FD019A157000284EBF0446D6
:109C70000198041B204603B030BC5DF80CFB00BF0C
:109C8000E3A1FFFF70B4044607E00D462A783AB11D
:109C900015F8016BB342F9D1641C2378002BF4D181
:109CA000201A70BC704770B4044600E0641C23782E
:109CB0003BB10D462A78002AF8D015F8016BB34263
:109CC000F8D1201A70BC704710B50446FBF788FD28
:109CD00001462046096ABDE81040084710B5044611
:109CE000FBF77EFD01462046896ABDE81040084723
:109CF000034600E05B1C1A78002AFBD111F801CB67
:109D000083F800C013F8012B002AF7D17047000038
:109D100070B50400002C01D10120AEE094F82000C1
:109D2000002802D1200000F0E1FB2068006830F03C
:109D3000020021680860FAF77DF805002068406895
:109D400080070DD5FAF776F8401B0B28F6D3606A2A
:109D500050F400306062052084F8200001208CE07F
:109D60002068006850F0010021680860FAF762F886
:109D7000060020684068C0070DD4FAF75BF8801B26
:109D80000B28F6D3606A50F400306062052084F836
:109D90002000012071E0207E012806D120680068A3
:109DA00050F080002168086005E02068006830F00D
:109DB000800021680860607E012806D12068006864
:109DC00050F040002168086005E02068006830F02D
:109DD000400021680860A07E012806D12068006844
:109DE00050F020002168086005E02068006830F02D
:109DF000200021680860E07E012806D12068006804
:109E000030F010002168086005E02068006850F01C
:109E1000100021680860207F012806D120680068B2
:109E200050F008002168086005E02068006830F004
:109E3000080021680860607F012806D1206800685A
:109E400050F004002168086005E02068006830F0E8
:109E5000040021680860A168E068014320690143AB
:109E6000606901436068401E01432068C1610020B1
:109E70006062012084F82000002070BDF0B4020070
:109E8000146892F820301800C0B2012804D01800DD
:109E9000C0B2022840F07F80594DD5F8000250F042
:109EA0000100C5F80002D5F8000230F47C50C5F876
:109EB0000002D5F800024E6A50EA0620C5F80002FA
:109EC00001200E7D16F01F0610FA06F6D5F81C02CA
:109ED000B043C5F81C02C869002816D1D5F80C0299
:109EE000B043C5F80C02486905EBC000CC684F6868
:109EF000C7EA0444C0F84042486905EBC0008C68DA
:109F00000F68C7EA0444C0F84442C869012816D162
:109F1000D5F80C023043C5F80C02486905EBC000C7
:109F20000C684F68C7EA0444C0F84042486905EB32
:109F3000C0008C68CF68C7EA0444C0F8444288690E
:109F4000002805D1D5F80402B043C5F8040204E0A6
:109F5000D5F804023043C5F804020869002805D189
:109F6000D5F81402B043C5F8140204E0D5F8140281
:109F70003043C5F81402086A012804D1D5F81C0240
:109F80003043C5F81C02D5F8000240084000C5F86F
:109F90000002002004E0506A50F48020506201204A
:109FA000F0BC704738B5040094F82000012821D196
:109FB000022084F8200020680068400840002168E2
:109FC0000860F9F737FF050020684068C0070DD525
:109FD000F9F730FF401B0B28F6D3606A50F40030CD
:109FE0006062052084F82000012008E00020606203
:109FF000002004E0606A50F400206062012032BD5D
:10A0000000640040F0B5040094F820502068866891
:10A0100088680028FFD02800C0B2012804D028009A
:10A02000C0B2022840F0848016F0E05F7AD0C6F318
:10A030000167032F05D3606A50F4000060620120BD
:10A040007BE00120B8401860886800280BD10868C0
:10A05000D1F80CC05CEA405C20685FEA071E7044DF
:10A06000C0F880C10DE04868D1F808C05CEAC00CB7
:10A07000C86850EA0C0C20685FEA071E7044C0F8FC
:10A0800080C10869D4F800C05FEA071EF444CCF828
:10A090008401087D01280ED120685FEA071C604416
:10A0A000D0F8840150F48070D4F800C05FEA071E35
:10A0B000F444CCF88401D07992F806C05FEA0C4CE5
:10A0C0005CEA006C50795CEA002C107950EA0C0CC8
:10A0D00020685FEA071E7044C0F88CC1D07892F8FF
:10A0E00002C05FEA0C4C5CEA006C50785CEA002C21
:10A0F000107850EA0C0C20685FEA071E7044C0F824
:10A1000088C120685FEA071C6044D0F8800150F0E5
:10A110000100D4F800C05FEA071EF444CCF88001C7
:10A1200000200AE0606A50F400106062012004E040
:10A13000606A50F4802060620120F0BD70B40400B9
:10A1400094F820502800C0B2012804D02800C0B2E2
:10A15000022840F0988000290AD12068C06810F0D9
:10A16000030F10D1606A50F40010606201208FE08C
:10A170002068006910F0030F05D1606A50F40010E8
:10A180006062012084E020680E013044D0F8B00104
:10A1900010F0040090609068002807D120680E013C
:10A1A0003044D0F8B001400D106006E020680E0188
:10A1B0003044D0F8B001C008506020680E0130442F
:10A1C000D0F8B00110F00200D06020680E013044D9
:10A1D000D0F8B40110F00F00106120680E01304477
:10A1E000D0F8B401C0F30720906120680E0130441C
:10A1F000D0F8B401000C506120680E013044D0F852
:10A20000B801187020680E013044D0F8B801000A77
:10A21000587020680E013044D0F8B801000C9870D6
:10A2200020680E013044D0F8B801000ED8702068C4
:10A230000E013044D0F8BC01187120680E01304482
:10A24000D0F8BC01000A587120680E013044D0F8E3
:10A25000BC01000C987120680E013044D0F8BC019C
:10A26000000ED871002906D12068C06850F0200087
:10A270002668F06005E02068006950F0200026683C
:10A280003061002004E0606A50F4802060620120A8
:10A2900070BC704710B4020092F820301800C0B2B1
:10A2A000012803D01800C0B2022806D11068406906
:10A2B000084314686061002004E0506A50F4802074
:10A2C0005062012010BC70472DE9F84F05000024B2
:10A2D00028684669286847682868D0F80880286890
:10A2E000D0F80C902868D0F810A02868D0F818B0E2
:10A2F000F00755D55FEAC87018D501202968886035
:10A300005FEA887003D5280000F0F1F80EE05FEAFC
:10A31000487002D554F4006408E05FEA087002D582
:10A3200054F4805402E0280000F0E2F85FEAC850DC
:10A3300019D54FF48070296888605FEA885003D58A
:10A34000280000F0D6F80EE05FEA485002D554F439
:10A35000005408E05FEA085002D554F4804402E05B
:10A36000280000F0C7F85FEAC83019D55FF48030E4
:10A37000296888605FEA883003D5280000F0BBF8C0
:10A380000EE05FEA483002D554F4004408E05FEA8A
:10A39000083002D554F4803402E0280000F0ACF814
:10A3A000300707D55FEAC96004D554F40074102063
:10A3B0002968C860700708D55FEA097005D50820CC
:10A3C0002968C860280000F098F8B00707D5286809
:10A3D000C06810F0030F02D0280000F08FF870065C
:10A3E00007D55FEACA6004D554F480641020296858
:10A3F0000861B00608D55FEA0A7005D5082029680B
:10A400000861280000F04EF9F00607D528680069B9
:10A4100010F0030F02D0280000F045F9B00307D573
:10A42000F80605D5102029684860280000F03CF99E
:10A43000F00307D5380705D50820296848602800AB
:10A4400000F033F9300447D5780742D5F00506D53A
:10A450001BF00100C0B2002801D054F00104B00587
:10A4600004D55FEA8B7001D554F00204700504D561
:10A470005FEA4B7001D554F00404300529D51BF078
:10A48000700F26D01BF0700010280AD020280BD0A7
:10A4900030280CD040280DD050280ED060280FD086
:10A4A00011E054F008040EE054F010040BE054F0F6
:10A4B000200408E054F0400405E054F0800402E079
:10A4C00054F48074FFE72868806930F070002968D0
:10A4D0008861042029684860002C05D0686A204300
:10A4E0006862280000F0E2F8BDE8F18F704770471D
:10A4F0007047704770477047704770472DE9F047C5
:10A5000092B00400DFF8608103AB424600212000D6
:10A51000FFF714FE002803D047215448FAF723F828
:10A52000D8F80400B0F5FA6F4ED19DF80C00012860
:10A5300006D048D3032827D01AD3042832D042E0CB
:10A540004B4A03A8417811704A4983788B70C378CD
:10A550000B72037945792D0455EA0365837955EA31
:10A560000325C07905434D6110784349087078E0B0
:10A57000404903A84278CA7082788A70C2780A7209
:10A5800000793E4908706CE003A841788278120493
:10A5900052EA0162C17852EA012200790243354849
:10A5A00042615EE0334903A842788A708278344B76
:10A5B0001A70C078087233480078012802D101204F
:10A5C000314908704DE04CE09DF80C00022825D17F
:10A5D0000C252E4E2E4FD8F8040031786943785060
:10A5E0005FF007080DF10D0930786843384410F129
:10A5F000040A424649465046F9F714F8307805FBFC
:10A6000000F507EB05000021C1723078032801DB5B
:10A61000002030703078401C307022E003A881792F
:10A62000427952EA012202920179C27852EA012269
:10A6300001928178407850EA012000909DF80C301A
:10A64000D8F80420134905A8FFF7FCFA05A9124819
:10A65000FFF74EFB05A91148FFF74AFB0020104900
:10A66000087012B0BDE8F08718100020A8CC0008D0
:10A67000771100209C0F00208411002087110020FA
:10A68000851100207B1100208611002083110020FD
:10A69000CC0E002008D10008900000208C0A002079
:10A6A0008C0000207047704770477047704700006B
:10A6B00010B50400002C01D1012014E094F83D00F5
:10A6C000002805D1002084F83C00200000F01DFA8D
:10A6D000022084F83D00211D206800F066F9012069
:10A6E00084F83D00002010BD01000868C06850F0EB
:10A6F00001000A68D0600868826812F00702062A22
:10A7000005D00868006850F001000B681860002050
:10A71000704701000868C068400840000A68D060BF
:10A720000868006A41F2111210420BD10868006AF1
:10A7300040F24442104205D10868006840084000D9
:10A740000A6810600020704710B504002068006996
:10A7500080071AD52068C068800716D57FF00200F0
:10A7600021680861012020772068806910F0030FBC
:10A7700003D0200000F0CAF905E0200000F0C7F97E
:10A78000200000F0C5F9002020772068006940070C
:10A790001AD52068C068400716D57FF004002168EC
:10A7A0000861022020772068806910F4407F03D080
:10A7B000200000F0ABF905E0200000F0A8F920002F
:10A7C00000F0A6F9002020772068006900071AD55C
:10A7D0002068C068000716D57FF00800216808616E
:10A7E000042020772068C06910F0030F03D02000F8
:10A7F00000F08CF905E0200000F089F9200000F05D
:10A8000087F90020207720680069C0061AD52068E3
:10A81000C068C00616D57FF01000216808610820C6
:10A8200020772068C06910F4407F03D0200000F03A
:10A830006DF905E0200000F06AF9200000F068F9E9
:10A840000020207720680069C0070AD52068C0680A
:10A85000C00706D57FF0010021680861200000F0E4
:10A8600059F92068006900060AD52068C06800060A
:10A8700006D57FF0800021680861200000F082F991
:10A880002068006940060AD52068C068400606D5E1
:10A890007FF0400021680861200000F074F9206812
:10A8A000006980060AD52068C068800606D57FF05A
:10A8B000200021680861200000F066F910BD70B525
:10A8C00004000D0094F83C00012801D102206BE047
:10A8D000012084F83C00022084F83D00206886684E
:10A8E00036F0770636F47F462068866028680028B0
:10A8F0004ED010284CD020284AD0302848D04028AC
:10A900003CD0502826D060282ED0702807D0B0F533
:10A91000805F03D0B0F5005F0FD03EE03DE0EB6814
:10A920006A68A968206800F0E4F82068806850F040
:10A9300077000600206886602FE0EB686A68A968E7
:10A94000206800F0D6F82068806850F480402168C4
:10A95000886022E0EA686968206800F09DF850216C
:10A96000206800F0BEF818E0EA686968206800F026
:10A97000A5F86021206800F0B4F80EE0EA68696884
:10A98000206800F089F84021206800F0AAF804E06F
:10A990002968206800F0A5F8FFE7012084F83D0051
:10A9A000002084F83C00002070BD10B40468DFF87B
:10A9B000BC30984212D0B0F1804F0FD0DFF8B020F9
:10A9C00090420BD0DFF8AC20904207D0DFF8A820EF
:10A9D000904203D0DFF8A420904203D134F07004F9
:10A9E0004A681443984228D0B0F1804F25D0DFF850
:10A9F0008020904221D0DFF87C2090421DD0DFF8EB
:10AA00007820904219D0DFF87420904215D0DFF8FA
:10AA10007020904211D0DFF86C2090420DD0DFF80A
:10AA20006820904209D0DFF86420904205D0184A8F
:10AA3000904202D0174A904203D134F44074CA685D
:10AA4000144334F080044A69144304608A68C26283
:10AA50000A688262984202D0084A904201D10A698B
:10AA600002630122426110BC7047000000000140F7
:10AA70000004004000080040000C004000040140B9
:10AA800000400140004401400048014000180040DF
:10AA9000001C00400020004010B4046A036A5B08F8
:10AAA0005B000362836933F0F00353EA021334F06E
:10AAB0000A040C438361046210BC704710B4036A3B
:10AAC00033F0100303628369046A33F4704353EA7A
:10AAD000023334F0A00454EA01148361046210BC10
:10AAE0007047836833F0700351F0070213438360AB
:10AAF000704730B4846834F47F4452EA010555EA63
:10AB000003252C43846030BC704770477047704702
:10AB10007047000010B504002068B0F1804F0FD1DD
:10AB200001201049087010480078042808DB0F48FD
:10AB3000FFF7EFFD002803D02D210D48F9F713FD95
:10AB400020680C49884202D101200B490870206816
:10AB50000A49884203D101200949087000E000BF7A
:10AB600010BD00BF8D1100208A110020540D00205F
:10AB700004CC0008000400408C110020000C0040B0
:10AB80008E110020704770477047000010B586B0E6
:10AB900004001422002101A8F9F75EFB2068B749E0
:10ABA000884247D100200090B548016851F00071FB
:10ABB0000160006810F00070009000980020009084
:10ABC000B048016851F001010160006810F0010017
:10ABD000009000984FF4C050019002200290002095
:10ABE0000390032004900920059001A9A648F9F7D5
:10ABF00071FB002200211320F9F730FD1320F9F733
:10AC000042FD002200211420F9F728FD1420F9F755
:10AC10003AFD002200211520F9F720FD1520F9F753
:10AC200032FD002200211620F9F718FD1620F9F751
:10AC30002AFD4CE020689549884247D100200090C9
:10AC40008F48016851F080610160006810F08060F9
:10AC500000900098002000908A48016851F002019D
:10AC60000160006810F00200009000984FF440501E
:10AC700001900220029000200390032004900920FC
:10AC8000059001A98248F9F725FB002200213F2009
:10AC9000F9F7E4FC3F20F9F7F6FC00220021402000
:10ACA000F9F7DCFC4020F9F7EEFC002200214120FE
:10ACB000F9F7D4FC4120F9F7E6FC002200214220FC
:10ACC000F9F7CCFC4220F9F7DEFC00E000BF0020E1
:10ACD00006B010BD10B56F4C684820602000FFF72B
:10ACE00055FF002803D06C216B48F9F73CFC00208D
:10ACF00060760020E0760120A0760020A060002091
:10AD00002077052060600020E0605FF46020206113
:10AD10005FF48010606100202076002060772000C2
:10AD2000FEF7F6FF002803D082215B48F9F71BFCF1
:10AD3000002010BD80B58AB0012008900020059049
:10AD4000002004900020009000200190002002903C
:10AD500000200390002006900120079069464D488E
:10AD6000FFF78CF8002803D09C214B48F9F7FBFB38
:10AD700000200BB000BD10B5464C40F2134120003E
:10AD8000FFF788FA002803D0AC214348F9F7EBFB22
:10AD90002000FFF707F9002803D0B1213E48F9F75A
:10ADA000E2FB002010BD10B53C4C3848206020006C
:10ADB000FFF7ECFE002803D0C1213748F9F7D3FB99
:10ADC000002060760120E0760120A0760020A060BF
:10ADD00000202077052060600020E0605FF46020A4
:10ADE00020615FF480106061002020760020607791
:10ADF0002000FEF78DFF002803D0D7212648F9F761
:10AE0000B2FB002010BD80B58AB0012008900E2052
:10AE10000590012004900020009000200190002067
:10AE200002900020039000200690012007906946C0
:10AE30001A48FFF723F8002803D0F1211648F9F744
:10AE400092FB00200BB000BD10B5144C40F2134132
:10AE50002000FFF71FFA002804D040F201110E482D
:10AE6000F9F781FB2000FFF79DF8002804D04FF48C
:10AE700083710948F9F777FB002010BD006400409A
:10AE80004038024030380240000002400068004074
:10AE9000000402402C0F002094CD0008540F002025
:10AEA0002DE9F0478EB08C4C2078012803D1FCF7B7
:10AEB000A7F900202070894CA07800280BD1884D7C
:10AEC000287800280AD001208649087000F055FA39
:10AED0000020287002E00120814908708148007834
:10AEE000012840F0A580804D2878012836D17F4880
:10AEF000007801281DD17E4E3078012819D07D4F71
:10AF000071A13800FEF7F4FEFAF7D4FC8046C8239E
:10AF1000424692B239007848FCF7F5FA5FF096099C
:10AF20005FF0000A524649463800F9F79FF90120C0
:10AF3000307066A266A16F48FEF784FE6F4E3078CF
:10AF4000042806DA6E4932780C2042438858FEF70E
:10AF5000DBFD3078401C307000202870694D287867
:10AF6000012865D168490878002807D10020A08110
:10AF70000020A0730020A0720020607600200870DE
:10AF80005A480078012829D107A8FAF793FC06004F
:10AF90005E480078049060690390E0780290207A1F
:10AFA0000190A07800905A4803784AA2594907A80E
:10AFB000FEF748FE504F4FF4FA73320092B207A9E1
:10AFC0003800FCF7A0FA4B4C53492000FEF73AFE3C
:10AFD000C823072221003800FCF795FA4F4905A83D
:10AFE000FEF7A4FC4E4C210000F0CCFA00204349AF
:10AFF0000870FEF76FFD00F054FB4A484A498A7812
:10B0000003924A78029209780191C17800914378BD
:10B01000827846492000FEF715FE4548FFF764FB9D
:10B02000002803D06B214348F9F79DFA00202870CF
:10B03000414C2078012832D135480078012804D1CC
:10B0400000F072FBFCF7EAF805E000224FF48041C3
:10B050003A48F9F74DFA3A49087801281DD12348B2
:10B060000078012819D1374A1078401C10701078E8
:10B07000142390FBF3F503FB150000280DD1324893
:10B080000378012B02D1FEF75DFC06E00078002872
:10B0900003D10020087000201070002020702B4C7D
:10B0A0002078012803D1FDF726FE00202070284CCF
:10B0B0002078012803D1FDF709FF0020207000202F
:10B0C0000EB0BDE8F08700BF0A00000031322C004E
:10B0D0002573000031370000841100209C0F0020F0
:10B0E000880000207C1100208D1100208B11002091
:10B0F0008C0000208C0A0020D40D00208A11002032
:10B10000CC0E00208C110020890000208711002027
:10B110007711002098D0000868D1000870D100088D
:10B12000900000206011002008110020B0D000081D
:10B13000540D002058CB00088E110020000402405E
:10B140008B000020791100208A000020811100204E
:10B15000821100201CB504002068B0F1804F14D18A
:10B16000002000909048016851F0010101600068E2
:10B1700010F0010000900098012200211C20F9F736
:10B180006DFA1C20F9F77FFA32E02068874988427F
:10B1900014D1002000908448016851F00201016040
:10B1A000006810F0020000900098002200211D208D
:10B1B000F9F754FA1D20F9F766FA19E020687C497E
:10B1C000884214D1002000907748016851F00801AE
:10B1D0000160006810F00800009000980022002133
:10B1E0003220F9F73BFA3220F9F74DFA00E000BFC0
:10B1F000002016BD10B586B06E4C5FF08040206018
:10B200002000FFF7A7FF002803D04C216A48F9F778
:10B21000AAF94CF24F3060600020A0605920E06035
:10B22000002020610020A0612000FFF741FA0028E3
:10B2300003D055216048F9F796F94FF480500290F9
:10B2400002A92000FFF73BFB002803D05A215A48EF
:10B25000F9F789F90020009000200190694620004C
:10B2600000F0CAFA002803D060215348F9F77BF9AF
:10B27000002006B010BD10B586B0504C4B48206081
:10B280002000FFF767FF002803D072214A48F9F732
:10B290006AF94BF67F3060600020A06040F6A56040
:10B2A000E060002020610020A0612000FFF700FA8C
:10B2B000002803D07B214048F9F755F94FF480501E
:10B2C000029002A92000FFF7FAFA002803D080219B
:10B2D0003948F9F748F900200090002001906946AC
:10B2E000200000F089FA002803D086213248F9F7BF
:10B2F0003AF9002006B010BD10B586B0304C2C488D
:10B3000020602000FFF726FF002803D098212A485C
:10B31000F9F729F94CF24F3060600020A06040F24C
:10B320008330E060002020610020A0612000FFF752
:10B33000BFF9002803D0A1211F48F9F714F94FF4F1
:10B340008050029002A92000FFF7B9FA002803D02C
:10B35000A6211948F9F707F9002000900020019074
:10B360006946200000F048FA002803D0AC211248BA
:10B37000F9F7F9F8002006B010BD80B5FEF7AAFB7A
:10B380000C48FFF7B1F9002803D0BD210A48F9F7AE
:10B39000EAF80A48FFF7A8F9002803D0C2210648B6
:10B3A000F9F7E1F8002002BD4038024000040040F7
:10B3B000000C0040540D0020C4CE0008140D0020E5
:10B3C000940D002080B5FEF71BFC00F0ADF90020C5
:10B3D00002BD80B500F066FA00F07EFA00F018F9C0
:10B3E00000F033F900F0FCFA00F070FBFFF772FC9C
:10B3F000FFF7A0FCFFF7BFFCFFF7D5FCFFF703FD4D
:10B40000FFF722FD00F098FC00F0BDFC00F0E2FC2C
:10B41000FDF736FB00F055FD00F0D2FDFFF7EAFE28
:10B42000FFF729FFFFF768FF00F02BF800F019F88D
:10B43000F6F730FF00F04EF800F04EF9FFF7C2FFCC
:10B440006420F9F73DF9FEF78AFB5E48FFF74CF9F7
:10B45000002803D063216D48F9F785F8FFF720FD38
:10B46000FCE7594867490160002141600021816083
:10B470000021C16000210161002141610021816141
:10B48000704780B5002000905F48016851F480014A
:10B490000160006810F480000090009800220021F4
:10B4A0003B20F9F7DBF83B20F9F7EDF8002200210B
:10B4B0004520F9F7D3F84520F9F7E5F801BD00205C
:10B4C000B0F5167F04DA0021484A1154401CF7E712
:10B4D00070470000F8B52DED028B00223B493C4837
:10B4E000F6F7B6F9002803D097214848F9F73BF85A
:10B4F000384C394D2A00210038A0F6F7BBFC002853
:10B5000003D09D214148F9F72EF8354F9FED358B3B
:10B5100028688069801E296849894843FAF7F2FC47
:10B5200053EC182BFAF7FCFCFAF7D8FC38602F4ED6
:10B530003A682F493000FEF785FBFFF7C0FF2D4F1B
:10B540002068296849894843FAF7DCFC53EC182B3A
:10B55000FAF7E6FCFAF7C2FC38603A682649300090
:10B56000FEF770FBFFF7ABFF122224492448F6F7E1
:10B57000B3F9002803D0A7212448F8F7F4FFBDEC65
:10B58000028BF1BD70B504000D001D4E3322210069
:10B590003000F6F7A1F9002803D0B1211B48F8F7D5
:10B5A000E2FF31002800F6F732FD3000F6F742FCEA
:10B5B000002803D0B6211548F8F7D5FFFFF77FFF25
:10B5C00070BD0000940D0020240B002038110020D5
:10B5D000E80200204411002040110020000000007B
:10B5E00048110020000000000000E03F9000002013
:10B5F00044D000084C11002060D0000858D1000849
:10B600001C050020002C01403038024048CD0008C5
:10B6100080B501202A4908602A482B490160002191
:10B6200041607F218160FF21C16000210161002113
:10B63000416100218161FDF757FF002803D03021CF
:10B640002248F8F790FF002002BD10B520490020E5
:10B65000087000204870012088700020C860002019
:10B660000861184C00222000FDF7A4FF002803D039
:10B6700044211648F8F777FF164903200870012087
:10B680004870012088701420C87000222000FEF746
:10B690004DF8002803D04C210C48F8F764FF002037
:10B6A00010BD10B5074C002209492000FEF70AF82A
:10B6B000002208492000FEF7B7F8002010BD000066
:10B6C0003C0E4742F80F0020002800402CCE000816
:10B6D00008110020601100201CB5002000903F4898
:10B6E000016851F004010160006810F0040000904E
:10B6F00000983B49012008600020486000208860D5
:10B700000320C860374C2000F8F7E4FD36490220DA
:10B71000086000204860002088600320C860200086
:10B72000F8F7D8FD002016BD2DE9F84F00250024BC
:10B730002C4FDFF8AC80D8F8001089B23800F8F749
:10B74000CCFE2A4E3178C0B2814201D1A94601E037
:10B750005FF00109DFF890A0DAF8001089B2380034
:10B76000F8F7BBFEDFF888B09BF80010C0B281424A
:10B7700001D14D4600E00125D8F8001089B238000B
:10B78000F8F7ABFE3070DAF8001089B23800F8F73D
:10B79000A4FE8BF800009BF80000002804D00120D4
:10B7A0001449887100260BE03078002804D002206C
:10B7B00010498871012603E003200E498871002694
:10B7C0002800C0B2002805D03000C0B2FEF7FBF957
:10B7D000002005000020BDE8F28F00003038024054
:10B7E0007C100020000802409010002088110020EA
:10B7F000891100209C0F002030B4020092F83C0018
:10B80000012801D102203CE0012082F83C00022006
:10B8100082F83D00106843681068846833F0700354
:10B8200008680343106843601068174DA8421BD096
:10B830001068B0F1804F17D01068144DA84213D093
:10B840001068134DA8420FD01068124DA8420BD0BB
:10B850001068114DA84207D01068104DA84203D0BF
:10B8600010680F4DA84205D134F0800448680443A5
:10B8700010688460012082F83D00002082F83C00BE
:10B88000002030BC70470000000001400004004070
:10B8900000080040000C004000040140004001404E
:10B8A0000018004080B50B48016851F40071016038
:10B8B000016851F480610160016851F48071016098
:10B8C0000320F8F7C5FE0020FDF7B4F8F7F798FD60
:10B8D000002002BD003C024080B5AAB03422002105
:10B8E00006A8F8F7B9FC1422002101A8F8F7B4FC67
:10B8F0005C22002113A8F8F7AFFC00200090354827
:10B90000016851F080510160006810F08050009093
:10B910000098002000903048016851F440410160D7
:10B92000006810F4404000900098092006905FF4F1
:10B93000803007900120089001200B9002200C908D
:10B940005FF480000D9004200E90B4200F90022030
:10B950001090082011900220129006A8FCF78AFE91
:10B96000002803D037211D48F8F7FDFD00F064FBE7
:10B97000002803D03D211948F8F7F5FD0F2001906C
:10B9800002200290002003904FF4A05004904FF446
:10B9900080500590052101A8FCF7B4FA002803D0D7
:10B9A00049210E48F8F7DFFD4FF4487013904FF42B
:10B9B00000702390002028900020249013A8FCF70A
:10B9C00069FB002803D051210448F8F7CCFD002082
:10B9D0002BB000BD4038024000700040B0CB0008E2
:10B9E0007CB5002000903148016851F002010160EF
:10B9F000016811F002010091009900210091016895
:10BA000051F004010160016811F0040100910099F6
:10BA100000210091016851F001010160006810F0FF
:10BA200001000090009822494FF4807008600120C6
:10BA30004860022088600020C8601E4C2000F8F793
:10BA400049FC1D494FF40070086001204860022045
:10BA500088600020C8602000F8F73CFC17494FF4CC
:10BA60000050086001204860022088600320C86000
:10BA7000134D2800F8F72EFC12494FF480460E6053
:10BA800001204860022088600320C8602800F8F781
:10BA900021FC0D490E6001204860002088600020D4
:10BAA000C8602000F8F716FC002076BD3038024050
:10BAB000A410002000040240B8100020CC10002088
:10BAC00000080240E0100020F410002030B59FB0C4
:10BAD000002000903548016851F0010101600168C3
:10BAE00011F001010091009900210091016851F0CD
:10BAF00004010160006810F00400009000984020EC
:10BB00001A9001201B9002201C9003201D90284CAD
:10BB10001AA92000F8F7DEFB80201590012016906E
:10BB2000022017900320189015A92000F8F7D2FBE7
:10BB30004FF4807010900120119002201290032089
:10BB400013901C4D10A92800F8F7C4FB4FF4806037
:10BB50000B9001200C9002200D9003200E900BA959
:10BB60002000F8F7B7FB4FF48050069001200790B3
:10BB7000022008900320099006A92000F8F7AAFBEC
:10BB80004FF4004001900120029002200390032016
:10BB9000049001A92800F8F79DFB01224021200014
:10BBA000F8F7A6FC00201FB030BD00BF30380240BF
:10BBB000000802400000024010B586B004001422C4
:10BBC00000216846F8F748FB2068964988422FD143
:10BBD000002005909448016851F010010160006850
:10BBE00010F0100005900598002005908F4801681E
:10BBF00051F001010160006810F001000590059806
:10BC00004FF4C060009002200190012002900320B8
:10BC100003900720049069468548F8F75BFB0022F3
:10BC200000212520F8F71AFD2520F8F72CFD80E0EB
:10BC30002068804988422ED1002005907E48016806
:10BC400051F400310160006810F40030059005984F
:10BC5000002005907548016851F0010101600068FD
:10BC600010F00100059005980C2000900220019032
:10BC700001200290032003900720049069466C483D
:10BC8000F8F728FB002200212620F8F7E7FC262001
:10BC9000F8F7F9FC4DE020686849884248D1002057
:10BCA00005906548016851F480210160006810F436
:10BCB000802005900598002005905C48016851F0AF
:10BCC00002010160016811F002010591059900214E
:10BCD0000591016851F004010160006810F0040052
:10BCE000059005984FF4806000900220019001209B
:10BCF0000290032003900720049069465048F8F70B
:10BD0000E9FA2020009002200190012002900320F7
:10BD100003900720049069464A48F8F7DBFA0022AE
:10BD200000212620F8F79AFC2620F8F7ACFC00E06A
:10BD300000BF002006B010BD10B5434C394820604C
:10BD40005FF4E13060600020A0600020E06000202F
:10BD500020610C2060610020A0610020E0612000D3
:10BD6000FFF72AFF002803D07E213848F8F7FBFBB5
:10BD70002000FBF78DFB002803D082213348F8F721
:10BD8000F2FB002010BD10B5314C2A4820605FF452
:10BD9000E13060600020A0600020E06000202061B1
:10BDA0000C2060610020A0610020E0612000FFF70E
:10BDB00003FF002803D099212448F8F7D4FB200082
:10BDC000FBF766FB002803D09D212048F8F7CBFB4A
:10BDD000002010BD10B51F4C184820605FF4E13002
:10BDE00060600020A0600020E060002020610C2046
:10BDF00060610020A0610020E0612000FFF7DCFE10
:10BE0000002803D0B4211148F8F7ADFB2000FBF760
:10BE10003FFB002803D0B8210C48F8F7A4FB002012
:10BE200010BD00000010014044380240303802408C
:10BE300000000240004400404038024000480040FA
:10BE40000004024000080240D40D002010CF00087A
:10BE5000140E0020540E002010B586B004001422E9
:10BE6000002101A8F8F7F8F920682849884225D16F
:10BE7000002000902648016851F40011016000681C
:10BE800010F40010009000980020009021480168F4
:10BE900051F002010160006810F00200009000986B
:10BEA000C0200190112002900120039002200490F4
:10BEB0000420059001A91848F8F70CFA002006B0F4
:10BEC00010BD10B5154C11482060102084F83E00BC
:10BED0004FF48040206112486060002060610020C3
:10BEE000A0600020E061002020622000FFF7B4FF86
:10BEF000002808D1200000F0DDF8002803D04E21F2
:10BF00000848F8F730FB002010BD00000054004046
:10BF1000403802403038024000040240C00C00208B
:10BF2000A0860100E0CD000810B586B00400142200
:10BF3000002101A8F8F790F92068384988423CD1DF
:10BF4000002000903648016851F48051016000687B
:10BF500010F4805000900098002000903148016853
:10BF600051F001010160016811F001010091009997
:10BF700000210091016851F004010160006810F097
:10BF8000040000900098E020019011200290012010
:10BF90000390032004900520059001A92248F8F79A
:10BFA00099F91020019001200290022003900020B6
:10BFB000049001A91D48F8F78DF9002006B010BDC6
:10BFC00010B51B4C154820604FF482706060002053
:10BFD000A0604FF40060E0600020206100206061FC
:10BFE0004FF40070A0611820E06100202062002062
:10BFF00060620020A0620A20E0622000FFF794FF48
:10C00000002808D1200000F04DF9002803D0592164
:10C010000848F8F7A8FA002010BD000000300140E1
:10C02000443802403038024000000240000802401C
:10C03000680C002078CE00087CB500240020009019
:10C040001948016851F080510160006810F080507B
:10C0500000900098012015490860F7F7EBFE0500F5
:10C06000104C2068C00308D4F7F7E4FE401B40F2F0
:10C07000E9318842F4D3032012E001200C49086022
:10C08000F7F7D8FE06002068800308D4F7F7D2FE41
:10C09000801B40F2E9318842F5D3032000E0002004
:10C0A00076BD0000047000404038024040000E425F
:10C0B00044000E4270B50400002C01D10120E1E0E3
:10C0C00094F83D00002805D1002084F83C002000B1
:10C0D00000F0E6F8242084F83D002068006840085D
:10C0E0004000216808602068006850F40040216822
:10C0F00008602068006830F4004021680860FBF7A1
:10C10000A4FF0100DFF880016268824208D2DFF8F4
:10C110007C21914201D2012200E00022D2B207E04C
:10C12000DFF86C21914201D2012200E00022D2B25C
:10C13000012A01D10120A5E0DFF85821B1FBF2F27C
:10C1400023685B689B099B01134325686B60236828
:10C150001B6A6568854201D2551C08E04FF496754C
:10C1600005FB02F54FF47A76B5FBF6F56D1C9B09DD
:10C170009B012B4325682B622368DB696568854238
:10C1800014D2481E65686D00B0FBF5F0401C000538
:10C19000000D042801D204253EE0481E65686D00AC
:10C1A000B0FBF5F56D1C2D052D0D35E0A0680028C0
:10C1B00009D14D1E666803204643B5FBF6F0401CCE
:10C1C0000005000D0AE04D1E666819204643B5FBC8
:10C1D000F6F0401C0005000D50F48040000501D130
:10C1E000012519E0A068002809D14D1E66680320CA
:10C1F0004643B5FBF6F56D1C2D052D0D0AE04D1ED1
:10C20000666819204643B5FBF6F56D1C2D052D0D0E
:10C2100055F4804555F40045DFF87C0003402B437E
:10C220002068C3612068036833F0C003E0690343FA
:10C23000206A03432068036020688368DFF85C009D
:10C24000034020690343E06803432068836020685B
:10C25000C3681B0A1B02A569606905432B4320685C
:10C26000C3602068006850F0010023681860002057
:10C270002064202084F83D0000202063002084F802
:10C280003E00002070BD0000A186010080841E00D9
:10C2900000093D0040420F000030FFFF007CFFFF1F
:10C2A0007047000010B50400002C01D101203FE0D0
:10C2B000606A00280020A06294F85100002805D18F
:10C2C000002084F85000200000F033F8022084F8A9
:10C2D00051002068006830F0400021680860616803
:10C2E000A0680143E068014320690143606901439C
:10C2F000A06910F400700143E0690143206A014322
:10C30000A06A014320680160A169090C11F00401D1
:10C31000606A0143206841602068C06930F40060B1
:10C320002168C86100206065012084F85100002068
:10C3300010BD704761001A03E0001703F8000703FF
:10C34000FF000100780100013001320106013901CE
:10C3500010014A012E017901060180014D004302BE
:10C3600081018201820184018401860187018701A4
:10C3700089018A018B018B018D018E018F01900152
:10C380009101910193019401F601960197019801A1
:10C3900098013D029B019C019D0120029F01A0018B
:10C3A000A001A201A201A401A401A601A701A70165
:10C3B000A901AA01AB01AC01AC01AE01AF01AF0113
:10C3C000B101B201B301B301B501B501B701B801C3
:10C3D000B801BA01BB01BC01BC01BE01F701C0013B
:10C3E000C101C201C301C401C501C401C701C80123
:10C3F000C701CA01CB01CA01CD011001DD01010055
:10C400008E01DE011201F3010300F101F401F401D8
:10C41000F8012801220212013A020900652C3B02B0
:10C420003B023D02662C3F024002410241024602AD
:10C430000A015302400081018601550289018A01E7
:10C4400058028F015A0290015C025D025E025F0297
:10C45000930161026202940164026502660267024E
:10C46000970196016A02622C6C026D026E029C01B9
:10C47000700271029D01730274029F0176027702BD
:10C48000780279027A027B027C02642C7E027F02AF
:10C49000A60181028202A901840285028602870226
:10C4A000AE014402B101B20145028D028E028F023B
:10C4B00090029102B7017B030300FD03FE03FF031B
:10C4C000AC0304008603880389038A03B1031103C4
:10C4D000C2030200A303A303C4030803CC030300A5
:10C4E0008C038E038F03D8031801F2030A00F903AB
:10C4F000F303F403F503F603F703F703F903FA0371
:10C50000FA033004200350041007600422018A0457
:10C510003601C1040E01CF040100C004D00444015F
:10C52000610526040000000038B50400454D0120D7
:10C53000287000F089F8002803D1287810F0FE0058
:10C540002870287832BD38B504003E4D012028708F
:10C5500000F088F8002804D12000C0B2FFF7E4FF03
:10C560002870287832BD10B504002000C0B2FFF753
:10C57000DBFF10BD2DE9F04104000D0016001F0087
:10C580005FF001085FF0FF333A003100280000F04F
:10C5900089F8002805D100F057F80028FBD10020C9
:10C5A00080464046C0B2BDE8F0812DE9F04104006C
:10C5B0000D0016001F005FF001085FF0FF333A0026
:10C5C0003100280000F088F8002805D100F03CF880
:10C5D0000028FBD1002080464046C0B2BDE8F08173
:10C5E000F8B588B004000F00150001261548007842
:10C5F000C00701D5032023E03800C0B2002805D0D1
:10C6000002280CD004D3032810D017E0002016E035
:10C61000684600F07BF80698286000200FE0684626
:10C6200000F074F807982880002008E0684600F0C1
:10C630006DF80798400A2860002000E00420C0B28E
:10C6400009B0F0BD8D00002080B50548F6F712FC5A
:10C65000042801D1002000E00120C0B202BD00BFCB
:10C66000240B002070B5002400F05AF8012801D0F6
:10C67000012013E00A4E3000F5F74CFE05002800BB
:10C68000C0B2002808D14FF400613000F6F79BFBE0
:10C69000002801D0012005002800C0B270BD00BFF5
:10C6A000240B00202DE9FC4104000D0016001F00A2
:10C6B0005FF00008009733002A0021000548F5F7D5
:10C6C00093FE002801D0012080464046C0B2BDE85C
:10C6D000F68100BF240B00202DE9FC4104000D0071
:10C6E00016001F005FF00008009733002A002100A9
:10C6F0000548F6F713F8002801D00120804640468F
:10C70000C0B2BDE8F68100BF240B002010B50400C4
:10C7100021000248F6F744FB10BD00BF240B0020A7
:10C7200081B001208DF800009DF8000001B0704735
:10C730007047FEE7FEE7FEE7FEE770477047704789
:10C7400080B500F077F801BD80B52A48F6F74EF9BC
:10C7500001BD80B52848F7F70EFC01BD80B527481C
:10C76000F7F709FC01BD80B52548FDF7ADFD01BD1A
:10C7700080B52348FDF7A8FD01BD80B52048FDF731
:10C78000A3FD01BD80B51E48FDF79EFD01BD80B52E
:10C790001C48FDF799FD01BD80B51A48FDF794FDD1
:10C7A00001BD80B51748FDF78FFD01BD80B5154867
:10C7B000FDF78AFD01BD80B51348FCF703FA01BD02
:10C7C00080B51248FCF7FEF901BD80B51048FAF7B4
:10C7D0000AFF01BD80B50F48FDF7B6FF01BD80B56A
:10C7E0000D48FDF7B1FF01BD80B50C48FDF7ACFF6A
:10C7F00001BD0000240B0020A80B0020080C002025
:10C800002C0F0020540F0020D40D0020140E002007
:10C81000540E0020540D0020140D0020940D002013
:10C8200080B50120F7F771FE01BD80B50220F7F752
:10C830006CFE01BD03480168034A12788918016043
:10C84000704700BF641100208E000020C700FC006C
:10C85000E900E200E400E000E500E700EA00EB00A8
:10C86000E800EF00EE00EC00C400C500C900E600DF
:10C87000C600F400F600F200FB00F900FF00D6004D
:10C88000DC00A200A300A500A7209201E100ED00BA
:10C89000F300FA00F100D100AA00BA00BF00102393
:10C8A000AC00BD00BC00A100AB00BB0091259225EF
:10C8B00093250225242561256225562555256325C6
:10C8C000512557255D255C255B251025142534252C
:10C8D0002C251C2500253C255E255F255A25542541
:10C8E00069256625602550256C2567256825642502
:10C8F000652559255825522553256B256A25182568
:10C900000C25882584258C2590258025B103DF0002
:10C910009303C003A303C303B500C403A603980392
:10C92000A903B4031E22C603B50329226122B10064
:10C930006522642220232123F7004822B000192217
:10C94000B7001A227F20B200A025A0007D1D0100A3
:10C95000632C001E9601A01E5A01001F0806101F1E
:10C960000606201F0806301F0806401F0606511F36
:10C970000700591F521F5B1F541F5D1F561F5F1F6B
:10C98000601F0806701F0E00BA1FBB1FC81FC91FFB
:10C99000CA1FCB1FDA1FDB1FF81FF91FEA1FEB1F8F
:10C9A000FA1FFB1F801F0806901F0806A01F08061D
:10C9B000B01F0400B81FB91FB21FBC1FCC1F01005D
:10C9C000C31FD01F0206E01F0206E51F0100EC1F77
:10C9D000F21F0100FC1F4E210100322170211002C4
:10C9E000842101008321D0241A05302C2F04602CCF
:10C9F0000201672C0601752C0201802C6401002DB8
:10CA0000260841FF1A030000809A45418E418F801D
:10CA10004545454949498E8F9092924F994F5555BA
:10CA200059999A9B9C9D9E9F41494F55A5A5A6A7A4
:10CA3000A8A9AAABACADAEAFB0B1B2B3B4B5B6B7FE
:10CA4000B8B9BABBBCBDBEBFC0C1C2C3C4C5C6C7EE
:10CA5000C8C9CACBCCCDCECFD0D1D2D3D4D5D6D7DE
:10CA6000D8D9DADBDCDDDEDFE0E1E2E3E4E5E6E7CE
:10CA7000E8E9EAEBECEDEEEFF0F1F2F3F4F5F6F7BE
:10CA8000F8F9FAFBFCFDFEFFF0B402461068956869
:10CA90001318506803EB5004C0071CD54D441AE02E
:10CAA00013F8017B05F8017B491EF9D198B113F801
:10CAB000011BC6F38106032E08BF13F8016B01EBBF
:10CAC00006214942801C294405D011F8016B05F864
:10CAD000016B401EF9D1A3420ED013F8016B16F082
:10CAE000030104BF13F8011BC91C30090F28DBD157
:10CAF00013F8010B0F30D7E7F0BC02F10C007047C0
:10CB0000433A5C55736572735C5355525941204DDD
:10CB100045525547555C4465736B746F705C636F29
:10CB200070795C4F64696E202831295C4F64696EAE
:10CB30005C5372635C6D6F64756C65735C75617278
:10CB4000745C72655F6170705F554152545F5269E9
:10CB50006E672E6300000000433A5C557365727384
:10CB60005C5355525941204D45525547555C4465DB
:10CB7000736B746F705C636F70795C4F64696E2067
:10CB80002831295C4F64696E5C5372635C6D6F641D
:10CB9000756C65735C69646C655F73746174655C06
:10CBA00072655F69646C655F73746174652E6300A0
:10CBB000433A5C55736572735C5355525941204D2D
:10CBC00045525547555C4465736B746F705C636F79
:10CBD00070795C4F64696E202831295C4F64696EFE
:10CBE0005C5372635C537973436F6E6669675C7202
:10CBF000655F7379735F636C6B5F636F6E666967A4
:10CC00002E630000433A5C55736572735C53555252
:10CC10005941204D45525547555C4465736B746FBF
:10CC2000705C636F70795C4F64696E202831295C99
:10CC30004F64696E5C5372635C4953525C72655F0A
:10CC400074696D65725F696E745F63616C6C62615B
:10CC5000636B2E6300000000433A5C55736572738A
:10CC60005C5355525941204D45525547555C4465DA
:10CC7000736B746F705C636F70795C4F64696E2066
:10CC80002831295C4F64696E5C5372635C6D6F641C
:10CC9000756C65735C63616E5C72655F6170705F1B
:10CCA00063616E2E63000000433A5C5573657273D6
:10CCB0005C5355525941204D45525547555C44658A
:10CCC000736B746F705C636F70795C4F64696E2016
:10CCD0002831295C4F64696E5C5372635C4953521E
:10CCE0005C72655F63616E5F696E745F63616C6CDB
:10CCF0006261636B2E63000000002115110E0D0CA4
:10CD00000B0B0A0A09090909090808080808080894
:10CD100007070707070707070707070707000000B8
:10CD200030313233343536373839616263646566A1
:10CD30006768696A6B6C6D6E6F707172737475760B
:10CD40007778797A00000000433A5C557365727316
:10CD50005C5355525941204D45525547555C4465E9
:10CD6000736B746F705C636F70795C4F64696E2075
:10CD70002831295C4F64696E5C5372635C6D6F642B
:10CD8000756C65735C6D61696E5C6D61696E2E6357
:10CD900000000000433A5C55736572735C53555252
:10CDA0005941204D45525547555C4465736B746F2E
:10CDB000705C636F70795C4F64696E202831295C08
:10CDC0004F64696E5C5372635C496E6974735C7224
:10CDD000655F63616E5F696E69742E6300000000B9
:10CDE000433A5C55736572735C5355525941204DFB
:10CDF00045525547555C4465736B746F705C636F47
:10CE000070795C4F64696E202831295C4F64696ECB
:10CE10005C5372635C496E6974735C72655F6932FE
:10CE2000635F696E69742E6300000000433A5C55CD
:10CE3000736572735C5355525941204D45525547A5
:10CE4000555C4465736B746F705C636F70795C4F95
:10CE500064696E202831295C4F64696E5C5372638B
:10CE60005C496E6974735C72655F7274635F696E4E
:10CE700069742E6300000000433A5C557365727359
:10CE80005C5355525941204D45525547555C4465B8
:10CE9000736B746F705C636F70795C4F64696E2044
:10CEA0002831295C4F64696E5C5372635C496E691A
:10CEB00074735C72655F7370695F696E69742E6309
:10CEC00000000000433A5C55736572735C53555221
:10CED0005941204D45525547555C4465736B746FFD
:10CEE000705C636F70795C4F64696E202831295CD7
:10CEF0004F64696E5C5372635C496E6974735C72F3
:10CF0000655F74696D65725F696E69742E63000098
:10CF1000433A5C55736572735C5355525941204DC9
:10CF200045525547555C4465736B746F705C636F15
:10CF300070795C4F64696E202831295C4F64696E9A
:10CF40005C5372635C496E6974735C72655F756192
:10CF500072745F696E69742E63000000433A5C5519
:10CF6000736572735C5355525941204D4552554774
:10CF7000555C4465736B746F705C636F70795C4F64
:10CF800064696E202831295C4F64696E5C5372635A
:10CF90005C496E6974735C72655F68616C5F6D7328
:10CFA000702E630010B5074979441831064C7C4453
:10CFB000163404E00A68081D114488470146A1425E
:10CFC000F8D110BD2C000000480000004EF688513A
:10CFD000CEF20001086840F470000860BFF34F8F84
:10CFE000BFF36F8F4FF00070E1EE100A7047000042
:10CFF0004B50FFFF001100009000002000000000D7
:10D0000089FAFFFF94020000800000000000002069
:10D0100000F00DF8002801D0FFF7C4FFAFF3008047
:10D020000020AFF30080FEF7D4F900F002F80120F1
:10D03000704700F001B8000007463846F9F71AFAC1
:10D04000FBE700005344204341524420546F746175
:10D050006C2053697A653A2009256C750A00000036
:10D0600053442043617264204672656520537061A9
:10D0700063653A20092531750A00000004480168FB
:10D0800051F4700101605FF0006002490860704770
:10D0900088ED00E008ED00E025732C25642C256464
:10D0A0002C25642C25642C25642C25640A000000A2
:10D0B0000A25642F25642F25642C25643A25643ABB
:10D0C0002564000047C5000867C5000875C500084D
:10D0D000ABC50008E1C5000801030507090E1012E1
:10D0E0001416181C1E000000111213141516171820
:10D0F000191A1B1C1D1E1F0025732564257325345A
:10D100006425640A000000002325642C25782C2562
:10D11000782C25782C257800000000000000000005
:10D120000102030406070809014880470148004737
:10D130007DD0000845D10008222A3A3C3E3F7C7F42
:10D1400000000000AFF30080FFF740FFFFF760FF33
:10D150002B2C3B3D5B5D00004F444F2E74787400D8
:10D16000257325640A00000031322C454E440A0024
:10D170006261742E74787400000610160006101692
:10D1800000000000010203042A0A0000FFF7FEBFAE
:10D19000FFF7FEBFFFF7FEBFFFF7FEBFFFF7FEBFC3
:10D1A000FFF7FEBFFFF7FEBFFFF7FEBFFFF7FEBFB3
:10D1B000FFF7FEBFFFF7FEBFFFF7FEBFFFF7FEBFA3
:10D1C000FFF7FEBFFFF7FEBFFFF7FEBFFFF7FEBF93
:10D1D000FFF7FEBFFFF7FEBFFFF7FEBFFFF7FEBF83
:10D1E000FFF7FEBFFFF7FEBFFFF7FEBFFFF7FEBF73
:10D1F000FFF7FEBFFFF7FEBFFFF7FEBFFFF7FEBF63
:10D20000FFF7FEBFFFF7FEBFFFF7FEBFFFF7FEBF52
:10D21000FFF7FEBFFFF7FEBFFFF7FEBFFFF7FEBF42
:10D22000FFF7FEBFFFF7FEBFFFF7FEBFFFF7FEBF32
:10D23000FFF7FEBFFFF7FEBFFFF7FEBFFFF7FEBF22
:10D24000FFF7FEBFFFF7FEBFFFF7FEBFFFF7FEBF12
:10D25000FFF7FEBFFFF7FEBFFFF7FEBFFFF7FEBF02
:10D26000FFF7FEBFFFF7FEBFFFF7FEBFFFF7FEBFF2
:10D27000FFF7FEBFFFF7FEBFFFF7FEBFFFF7FEBFE2
:10D28000FFF7FEBFFFF7FEBFFFF7FEBFFFF7FEBFD2
:10D29000FFF7FEBFFFF7FEBF13100001F0050724E4
:10D2A000F400EA5800080452FF01E3B257141001D9
:10D2B0000000720C120144F003020800002000017B
:10D2C00012C13412B50412D504612043DD360C437B
:08D2D000CB363C2101420101B3
:040000050800D145D9
:00000001FF
